{
  "contractName": "CryptoCanvas",
  "abi": [
    {
      "inputs": [
        {
          "internalType": "uint256[]",
          "name": "tokenIds",
          "type": "uint256[]"
        },
        {
          "internalType": "string",
          "name": "uriIn",
          "type": "string"
        }
      ],
      "stateMutability": "nonpayable",
      "type": "constructor"
    },
    {
      "anonymous": false,
      "inputs": [
        {
          "indexed": true,
          "internalType": "address",
          "name": "owner",
          "type": "address"
        },
        {
          "indexed": true,
          "internalType": "address",
          "name": "approved",
          "type": "address"
        },
        {
          "indexed": true,
          "internalType": "uint256",
          "name": "tokenId",
          "type": "uint256"
        }
      ],
      "name": "Approval",
      "type": "event"
    },
    {
      "anonymous": false,
      "inputs": [
        {
          "indexed": true,
          "internalType": "address",
          "name": "owner",
          "type": "address"
        },
        {
          "indexed": true,
          "internalType": "address",
          "name": "operator",
          "type": "address"
        },
        {
          "indexed": false,
          "internalType": "bool",
          "name": "approved",
          "type": "bool"
        }
      ],
      "name": "ApprovalForAll",
      "type": "event"
    },
    {
      "anonymous": false,
      "inputs": [
        {
          "indexed": false,
          "internalType": "uint256",
          "name": "tokenId",
          "type": "uint256"
        },
        {
          "indexed": false,
          "internalType": "address",
          "name": "owner",
          "type": "address"
        },
        {
          "indexed": false,
          "internalType": "bytes",
          "name": "updatedColor",
          "type": "bytes"
        }
      ],
      "name": "ColorBytesUpdated",
      "type": "event"
    },
    {
      "anonymous": false,
      "inputs": [
        {
          "indexed": true,
          "internalType": "address",
          "name": "from",
          "type": "address"
        },
        {
          "indexed": true,
          "internalType": "address",
          "name": "to",
          "type": "address"
        },
        {
          "indexed": true,
          "internalType": "uint256",
          "name": "tokenId",
          "type": "uint256"
        }
      ],
      "name": "Transfer",
      "type": "event"
    },
    {
      "inputs": [
        {
          "internalType": "address",
          "name": "to",
          "type": "address"
        },
        {
          "internalType": "uint256",
          "name": "tokenId",
          "type": "uint256"
        }
      ],
      "name": "approve",
      "outputs": [],
      "stateMutability": "nonpayable",
      "type": "function"
    },
    {
      "inputs": [
        {
          "internalType": "address",
          "name": "owner",
          "type": "address"
        }
      ],
      "name": "balanceOf",
      "outputs": [
        {
          "internalType": "uint256",
          "name": "",
          "type": "uint256"
        }
      ],
      "stateMutability": "view",
      "type": "function",
      "constant": true
    },
    {
      "inputs": [
        {
          "internalType": "uint256",
          "name": "tokenId",
          "type": "uint256"
        }
      ],
      "name": "getApproved",
      "outputs": [
        {
          "internalType": "address",
          "name": "",
          "type": "address"
        }
      ],
      "stateMutability": "view",
      "type": "function",
      "constant": true
    },
    {
      "inputs": [
        {
          "internalType": "address",
          "name": "owner",
          "type": "address"
        },
        {
          "internalType": "address",
          "name": "operator",
          "type": "address"
        }
      ],
      "name": "isApprovedForAll",
      "outputs": [
        {
          "internalType": "bool",
          "name": "",
          "type": "bool"
        }
      ],
      "stateMutability": "view",
      "type": "function",
      "constant": true
    },
    {
      "inputs": [],
      "name": "name",
      "outputs": [
        {
          "internalType": "string",
          "name": "",
          "type": "string"
        }
      ],
      "stateMutability": "view",
      "type": "function",
      "constant": true
    },
    {
      "inputs": [
        {
          "internalType": "uint256",
          "name": "tokenId",
          "type": "uint256"
        }
      ],
      "name": "ownerOf",
      "outputs": [
        {
          "internalType": "address",
          "name": "",
          "type": "address"
        }
      ],
      "stateMutability": "view",
      "type": "function",
      "constant": true
    },
    {
      "inputs": [
        {
          "internalType": "address",
          "name": "from",
          "type": "address"
        },
        {
          "internalType": "address",
          "name": "to",
          "type": "address"
        },
        {
          "internalType": "uint256",
          "name": "tokenId",
          "type": "uint256"
        }
      ],
      "name": "safeTransferFrom",
      "outputs": [],
      "stateMutability": "nonpayable",
      "type": "function"
    },
    {
      "inputs": [
        {
          "internalType": "address",
          "name": "from",
          "type": "address"
        },
        {
          "internalType": "address",
          "name": "to",
          "type": "address"
        },
        {
          "internalType": "uint256",
          "name": "tokenId",
          "type": "uint256"
        },
        {
          "internalType": "bytes",
          "name": "_data",
          "type": "bytes"
        }
      ],
      "name": "safeTransferFrom",
      "outputs": [],
      "stateMutability": "nonpayable",
      "type": "function"
    },
    {
      "inputs": [
        {
          "internalType": "address",
          "name": "operator",
          "type": "address"
        },
        {
          "internalType": "bool",
          "name": "approved",
          "type": "bool"
        }
      ],
      "name": "setApprovalForAll",
      "outputs": [],
      "stateMutability": "nonpayable",
      "type": "function"
    },
    {
      "inputs": [
        {
          "internalType": "bytes4",
          "name": "interfaceId",
          "type": "bytes4"
        }
      ],
      "name": "supportsInterface",
      "outputs": [
        {
          "internalType": "bool",
          "name": "",
          "type": "bool"
        }
      ],
      "stateMutability": "view",
      "type": "function",
      "constant": true
    },
    {
      "inputs": [],
      "name": "symbol",
      "outputs": [
        {
          "internalType": "string",
          "name": "",
          "type": "string"
        }
      ],
      "stateMutability": "view",
      "type": "function",
      "constant": true
    },
    {
      "inputs": [
        {
          "internalType": "uint256",
          "name": "tokenId",
          "type": "uint256"
        }
      ],
      "name": "tokenURI",
      "outputs": [
        {
          "internalType": "string",
          "name": "",
          "type": "string"
        }
      ],
      "stateMutability": "view",
      "type": "function",
      "constant": true
    },
    {
      "inputs": [
        {
          "internalType": "address",
          "name": "from",
          "type": "address"
        },
        {
          "internalType": "address",
          "name": "to",
          "type": "address"
        },
        {
          "internalType": "uint256",
          "name": "tokenId",
          "type": "uint256"
        }
      ],
      "name": "transferFrom",
      "outputs": [],
      "stateMutability": "nonpayable",
      "type": "function"
    },
    {
      "inputs": [
        {
          "internalType": "uint256",
          "name": "tokenId",
          "type": "uint256"
        }
      ],
      "name": "getOwner",
      "outputs": [
        {
          "internalType": "address",
          "name": "",
          "type": "address"
        }
      ],
      "stateMutability": "view",
      "type": "function",
      "constant": true
    },
    {
      "inputs": [
        {
          "internalType": "uint256[]",
          "name": "tokenIds",
          "type": "uint256[]"
        }
      ],
      "name": "mintTiles",
      "outputs": [],
      "stateMutability": "nonpayable",
      "type": "function"
    },
    {
      "inputs": [
        {
          "internalType": "uint256",
          "name": "tokenId",
          "type": "uint256"
        }
      ],
      "name": "mintTile",
      "outputs": [],
      "stateMutability": "nonpayable",
      "type": "function"
    },
    {
      "inputs": [
        {
          "internalType": "uint256[]",
          "name": "tokenIds",
          "type": "uint256[]"
        },
        {
          "internalType": "bytes[]",
          "name": "colors",
          "type": "bytes[]"
        }
      ],
      "name": "setColorBytesBulk",
      "outputs": [],
      "stateMutability": "nonpayable",
      "type": "function"
    },
    {
      "inputs": [
        {
          "internalType": "uint256",
          "name": "tokenId",
          "type": "uint256"
        },
        {
          "internalType": "bytes",
          "name": "color",
          "type": "bytes"
        }
      ],
      "name": "setColorBytes",
      "outputs": [],
      "stateMutability": "nonpayable",
      "type": "function"
    },
    {
      "inputs": [
        {
          "internalType": "uint256",
          "name": "tokenId",
          "type": "uint256"
        }
      ],
      "name": "exists",
      "outputs": [
        {
          "internalType": "bool",
          "name": "",
          "type": "bool"
        }
      ],
      "stateMutability": "view",
      "type": "function",
      "constant": true
    }
  ],
  "bytecode": "0x60806040523480156200001157600080fd5b5060405162004031380380620040318339818101604052810190620000379190620008b9565b6040518060400160405280600581526020017f54696c65730000000000000000000000000000000000000000000000000000008152506040518060400160405280600381526020017f54494c00000000000000000000000000000000000000000000000000000000008152508160009080519060200190620000bb929190620006af565b508060019080519060200190620000d4929190620006af565b50505033600660006101000a81548173ffffffffffffffffffffffffffffffffffffffff021916908373ffffffffffffffffffffffffffffffffffffffff160217905550611388600781905550806008908051906020019062000139929190620006af565b506200014b826200015360201b60201c565b505062000f2f565b60005b8151811015620001dd576200018e8282815181106200017a576200017962000dd2565b5b6020026020010151620001e160201b60201c565b6200019857600080fd5b620001c733838381518110620001b357620001b262000dd2565b5b6020026020010151620001ef60201b60201c565b8080620001d49062000d26565b91505062000156565b5050565b6000611b9082109050919050565b620002118282604051806020016040528060008152506200021560201b60201c565b5050565b6200022783836200028360201b60201c565b6200023c60008484846200046960201b60201c565b6200027e576040517f08c379a0000000000000000000000000000000000000000000000000000000008152600401620002759062000a9c565b60405180910390fd5b505050565b600073ffffffffffffffffffffffffffffffffffffffff168273ffffffffffffffffffffffffffffffffffffffff161415620002f6576040517f08c379a0000000000000000000000000000000000000000000000000000000008152600401620002ed9062000ae0565b60405180910390fd5b62000307816200062360201b60201c565b156200034a576040517f08c379a0000000000000000000000000000000000000000000000000000000008152600401620003419062000abe565b60405180910390fd5b6200035e600083836200068f60201b60201c565b6001600360008473ffffffffffffffffffffffffffffffffffffffff1673ffffffffffffffffffffffffffffffffffffffff1681526020019081526020016000206000828254620003b0919062000bbd565b92505081905550816002600083815260200190815260200160002060006101000a81548173ffffffffffffffffffffffffffffffffffffffff021916908373ffffffffffffffffffffffffffffffffffffffff160217905550808273ffffffffffffffffffffffffffffffffffffffff16600073ffffffffffffffffffffffffffffffffffffffff167fddf252ad1be2c89b69c2b068fc378daa952ba7f163c4a11628f55a4df523b3ef60405160405180910390a45050565b6000620004978473ffffffffffffffffffffffffffffffffffffffff166200069460201b62000f961760201c565b1562000616578373ffffffffffffffffffffffffffffffffffffffff1663150b7a02620004c9620006a760201b60201c565b8786866040518563ffffffff1660e01b8152600401620004ed949392919062000a48565b602060405180830381600087803b1580156200050857600080fd5b505af19250505080156200053c57506040513d601f19601f820116820180604052508101906200053991906200093e565b60015b620005c5573d80600081146200056f576040519150601f19603f3d011682016040523d82523d6000602084013e62000574565b606091505b50600081511415620005bd576040517f08c379a0000000000000000000000000000000000000000000000000000000008152600401620005b49062000a9c565b60405180910390fd5b805181602001fd5b63150b7a0260e01b7bffffffffffffffffffffffffffffffffffffffffffffffffffffffff1916817bffffffffffffffffffffffffffffffffffffffffffffffffffffffff1916149150506200061b565b600190505b949350505050565b60008073ffffffffffffffffffffffffffffffffffffffff166002600084815260200190815260200160002060009054906101000a900473ffffffffffffffffffffffffffffffffffffffff1673ffffffffffffffffffffffffffffffffffffffff1614159050919050565b505050565b600080823b905060008111915050919050565b600033905090565b828054620006bd9062000cba565b90600052602060002090601f016020900481019282620006e157600085556200072d565b82601f10620006fc57805160ff19168380011785556200072d565b828001600101855582156200072d579182015b828111156200072c5782518255916020019190600101906200070f565b5b5090506200073c919062000740565b5090565b5b808211156200075b57600081600090555060010162000741565b5090565b600062000776620007708462000b2b565b62000b02565b905080838252602082019050828560208602820111156200079c576200079b62000e35565b5b60005b85811015620007d05781620007b58882620008a2565b8452602084019350602083019250506001810190506200079f565b5050509392505050565b6000620007f1620007eb8462000b5a565b62000b02565b90508281526020810184848401111562000810576200080f62000e3a565b5b6200081d84828562000c84565b509392505050565b600082601f8301126200083d576200083c62000e30565b5b81516200084f8482602086016200075f565b91505092915050565b600081519050620008698162000efb565b92915050565b600082601f83011262000887576200088662000e30565b5b815162000899848260208601620007da565b91505092915050565b600081519050620008b38162000f15565b92915050565b60008060408385031215620008d357620008d262000e44565b5b600083015167ffffffffffffffff811115620008f457620008f362000e3f565b5b620009028582860162000825565b925050602083015167ffffffffffffffff81111562000926576200092562000e3f565b5b62000934858286016200086f565b9150509250929050565b60006020828403121562000957576200095662000e44565b5b6000620009678482850162000858565b91505092915050565b6200097b8162000c1a565b82525050565b60006200098e8262000b90565b6200099a818562000b9b565b9350620009ac81856020860162000c84565b620009b78162000e49565b840191505092915050565b6000620009d160328362000bac565b9150620009de8262000e5a565b604082019050919050565b6000620009f8601c8362000bac565b915062000a058262000ea9565b602082019050919050565b600062000a1f60208362000bac565b915062000a2c8262000ed2565b602082019050919050565b62000a428162000c7a565b82525050565b600060808201905062000a5f600083018762000970565b62000a6e602083018662000970565b62000a7d604083018562000a37565b818103606083015262000a91818462000981565b905095945050505050565b6000602082019050818103600083015262000ab781620009c2565b9050919050565b6000602082019050818103600083015262000ad981620009e9565b9050919050565b6000602082019050818103600083015262000afb8162000a10565b9050919050565b600062000b0e62000b21565b905062000b1c828262000cf0565b919050565b6000604051905090565b600067ffffffffffffffff82111562000b495762000b4862000e01565b5b602082029050602081019050919050565b600067ffffffffffffffff82111562000b785762000b7762000e01565b5b62000b838262000e49565b9050602081019050919050565b600081519050919050565b600082825260208201905092915050565b600082825260208201905092915050565b600062000bca8262000c7a565b915062000bd78362000c7a565b9250827fffffffffffffffffffffffffffffffffffffffffffffffffffffffffffffffff0382111562000c0f5762000c0e62000d74565b5b828201905092915050565b600062000c278262000c5a565b9050919050565b60007fffffffff0000000000000000000000000000000000000000000000000000000082169050919050565b600073ffffffffffffffffffffffffffffffffffffffff82169050919050565b6000819050919050565b60005b8381101562000ca457808201518184015260208101905062000c87565b8381111562000cb4576000848401525b50505050565b6000600282049050600182168062000cd357607f821691505b6020821081141562000cea5762000ce962000da3565b5b50919050565b62000cfb8262000e49565b810181811067ffffffffffffffff8211171562000d1d5762000d1c62000e01565b5b80604052505050565b600062000d338262000c7a565b91507fffffffffffffffffffffffffffffffffffffffffffffffffffffffffffffffff82141562000d695762000d6862000d74565b5b600182019050919050565b7f4e487b7100000000000000000000000000000000000000000000000000000000600052601160045260246000fd5b7f4e487b7100000000000000000000000000000000000000000000000000000000600052602260045260246000fd5b7f4e487b7100000000000000000000000000000000000000000000000000000000600052603260045260246000fd5b7f4e487b7100000000000000000000000000000000000000000000000000000000600052604160045260246000fd5b600080fd5b600080fd5b600080fd5b600080fd5b600080fd5b6000601f19601f8301169050919050565b7f4552433732313a207472616e7366657220746f206e6f6e20455243373231526560008201527f63656976657220696d706c656d656e7465720000000000000000000000000000602082015250565b7f4552433732313a20746f6b656e20616c7265616479206d696e74656400000000600082015250565b7f4552433732313a206d696e7420746f20746865207a65726f2061646472657373600082015250565b62000f068162000c2e565b811462000f1257600080fd5b50565b62000f208162000c7a565b811462000f2c57600080fd5b50565b6130f28062000f3f6000396000f3fe608060405234801561001057600080fd5b50600436106101215760003560e01c806370a08231116100ad578063b88d4fde11610071578063b88d4fde14610316578063c41a360a14610332578063c87b56dd14610362578063d0bfa9ec14610392578063e985e9c5146103ae57610121565b806370a0823114610274578063719f61f5146102a4578063720dce6a146102c057806395d89b41146102dc578063a22cb465146102fa57610121565b806323b872dd116100f457806323b872dd146101c05780632ce14468146101dc57806342842e0e146101f85780634f558e79146102145780636352211e1461024457610121565b806301ffc9a71461012657806306fdde0314610156578063081812fc14610174578063095ea7b3146101a4575b600080fd5b610140600480360381019061013b9190611fb2565b6103de565b60405161014d9190612466565b60405180910390f35b61015e6104c0565b60405161016b9190612481565b60405180910390f35b61018e6004803603810190610189919061200c565b610552565b60405161019b91906123ff565b60405180910390f35b6101be60048036038101906101b99190611eb1565b6105d7565b005b6101da60048036038101906101d59190611d9b565b6106ef565b005b6101f660048036038101906101f1919061200c565b61074f565b005b610212600480360381019061020d9190611d9b565b610783565b005b61022e6004803603810190610229919061200c565b6107a3565b60405161023b9190612466565b60405180910390f35b61025e6004803603810190610259919061200c565b6107c7565b60405161026b91906123ff565b60405180910390f35b61028e60048036038101906102899190611d2e565b610879565b60405161029b91906126e3565b60405180910390f35b6102be60048036038101906102b99190611f3a565b610931565b005b6102da60048036038101906102d59190612039565b6109e4565b005b6102e4610af9565b6040516102f19190612481565b60405180910390f35b610314600480360381019061030f9190611e71565b610b8b565b005b610330600480360381019061032b9190611dee565b610d0c565b005b61034c6004803603810190610347919061200c565b610d6e565b60405161035991906123ff565b60405180910390f35b61037c6004803603810190610377919061200c565b610daa565b6040516103899190612481565b60405180910390f35b6103ac60048036038101906103a79190611ef1565b610e51565b005b6103c860048036038101906103c39190611d5b565b610f02565b6040516103d59190612466565b60405180910390f35b60007f80ac58cd000000000000000000000000000000000000000000000000000000007bffffffffffffffffffffffffffffffffffffffffffffffffffffffff1916827bffffffffffffffffffffffffffffffffffffffffffffffffffffffff191614806104a957507f5b5e139f000000000000000000000000000000000000000000000000000000007bffffffffffffffffffffffffffffffffffffffffffffffffffffffff1916827bffffffffffffffffffffffffffffffffffffffffffffffffffffffff1916145b806104b957506104b882610fa9565b5b9050919050565b6060600080546104cf9061299e565b80601f01602080910402602001604051908101604052809291908181526020018280546104fb9061299e565b80156105485780601f1061051d57610100808354040283529160200191610548565b820191906000526020600020905b81548152906001019060200180831161052b57829003601f168201915b5050505050905090565b600061055d82611013565b61059c576040517f08c379a000000000000000000000000000000000000000000000000000000000815260040161059390612643565b60405180910390fd5b6004600083815260200190815260200160002060009054906101000a900473ffffffffffffffffffffffffffffffffffffffff169050919050565b60006105e2826107c7565b90508073ffffffffffffffffffffffffffffffffffffffff168373ffffffffffffffffffffffffffffffffffffffff161415610653576040517f08c379a000000000000000000000000000000000000000000000000000000000815260040161064a906126a3565b60405180910390fd5b8073ffffffffffffffffffffffffffffffffffffffff1661067261107f565b73ffffffffffffffffffffffffffffffffffffffff1614806106a157506106a08161069b61107f565b610f02565b5b6106e0576040517f08c379a00000000000000000000000000000000000000000000000000000000081526004016106d7906125c3565b60405180910390fd5b6106ea8383611087565b505050565b6107006106fa61107f565b82611140565b61073f576040517f08c379a0000000000000000000000000000000000000000000000000000000008152600401610736906126c3565b60405180910390fd5b61074a83838361121e565b505050565b606461075a33610879565b1061076457600080fd5b61076d8161147a565b61077657600080fd5b6107803382611488565b50565b61079e83838360405180602001604052806000815250610d0c565b505050565b60006107ae8261147a565b6107b757600080fd5b6107c082611013565b9050919050565b6000806002600084815260200190815260200160002060009054906101000a900473ffffffffffffffffffffffffffffffffffffffff169050600073ffffffffffffffffffffffffffffffffffffffff168173ffffffffffffffffffffffffffffffffffffffff161415610870576040517f08c379a000000000000000000000000000000000000000000000000000000000815260040161086790612603565b60405180910390fd5b80915050919050565b60008073ffffffffffffffffffffffffffffffffffffffff168273ffffffffffffffffffffffffffffffffffffffff1614156108ea576040517f08c379a00000000000000000000000000000000000000000000000000000000081526004016108e1906125e3565b60405180910390fd5b600360008373ffffffffffffffffffffffffffffffffffffffff1673ffffffffffffffffffffffffffffffffffffffff168152602001908152602001600020549050919050565b60008251118015610943575080518251145b610982576040517f08c379a0000000000000000000000000000000000000000000000000000000008152600401610979906124a3565b60405180910390fd5b60005b82518110156109df576109cc8382815181106109a4576109a3612b08565b5b60200260200101518383815181106109bf576109be612b08565b5b60200260200101516109e4565b80806109d790612a01565b915050610985565b505050565b6109ed8261147a565b610a2c576040517f08c379a0000000000000000000000000000000000000000000000000000000008152600401610a23906125a3565b60405180910390fd5b610a3682336114a6565b610a75576040517f08c379a0000000000000000000000000000000000000000000000000000000008152600401610a6c906124e3565b60405180910390fd5b600754815110610aba576040517f08c379a0000000000000000000000000000000000000000000000000000000008152600401610ab1906124c3565b60405180910390fd5b7ff9785b36c26c205a690a0a7bfb3acb423155645c2cd9c2e27e913375f2b596a6823383604051610aed939291906126fe565b60405180910390a15050565b606060018054610b089061299e565b80601f0160208091040260200160405190810160405280929190818152602001828054610b349061299e565b8015610b815780601f10610b5657610100808354040283529160200191610b81565b820191906000526020600020905b815481529060010190602001808311610b6457829003601f168201915b5050505050905090565b610b9361107f565b73ffffffffffffffffffffffffffffffffffffffff168273ffffffffffffffffffffffffffffffffffffffff161415610c01576040517f08c379a0000000000000000000000000000000000000000000000000000000008152600401610bf890612563565b60405180910390fd5b8060056000610c0e61107f565b73ffffffffffffffffffffffffffffffffffffffff1673ffffffffffffffffffffffffffffffffffffffff16815260200190815260200160002060008473ffffffffffffffffffffffffffffffffffffffff1673ffffffffffffffffffffffffffffffffffffffff16815260200190815260200160002060006101000a81548160ff0219169083151502179055508173ffffffffffffffffffffffffffffffffffffffff16610cbb61107f565b73ffffffffffffffffffffffffffffffffffffffff167f17307eab39ab6107e8899845ad3d59bd9653f200f220920489ca2b5937696c3183604051610d009190612466565b60405180910390a35050565b610d1d610d1761107f565b83611140565b610d5c576040517f08c379a0000000000000000000000000000000000000000000000000000000008152600401610d53906126c3565b60405180910390fd5b610d68848484846114e7565b50505050565b6000610d798261147a565b610d8257600080fd5b610d8b826107a3565b15610da057610d99826107c7565b9050610da5565b600090505b919050565b6060610db582611013565b610df4576040517f08c379a0000000000000000000000000000000000000000000000000000000008152600401610deb90612683565b60405180910390fd5b6000610dfe611543565b90506000815111610e1e5760405180602001604052806000815250610e49565b80610e28846115d5565b604051602001610e399291906123db565b6040516020818303038152906040525b915050919050565b60008151118015610e6457506014815111155b610e6d57600080fd5b60648151610e7a33610879565b610e84919061282d565b1115610e8f57600080fd5b60005b8151811015610efe57610ebe828281518110610eb157610eb0612b08565b5b602002602001015161147a565b610ec757600080fd5b610eeb33838381518110610ede57610edd612b08565b5b6020026020010151611488565b8080610ef690612a01565b915050610e92565b5050565b6000600560008473ffffffffffffffffffffffffffffffffffffffff1673ffffffffffffffffffffffffffffffffffffffff16815260200190815260200160002060008373ffffffffffffffffffffffffffffffffffffffff1673ffffffffffffffffffffffffffffffffffffffff16815260200190815260200160002060009054906101000a900460ff16905092915050565b600080823b905060008111915050919050565b60007f01ffc9a7000000000000000000000000000000000000000000000000000000007bffffffffffffffffffffffffffffffffffffffffffffffffffffffff1916827bffffffffffffffffffffffffffffffffffffffffffffffffffffffff1916149050919050565b60008073ffffffffffffffffffffffffffffffffffffffff166002600084815260200190815260200160002060009054906101000a900473ffffffffffffffffffffffffffffffffffffffff1673ffffffffffffffffffffffffffffffffffffffff1614159050919050565b600033905090565b816004600083815260200190815260200160002060006101000a81548173ffffffffffffffffffffffffffffffffffffffff021916908373ffffffffffffffffffffffffffffffffffffffff160217905550808273ffffffffffffffffffffffffffffffffffffffff166110fa836107c7565b73ffffffffffffffffffffffffffffffffffffffff167f8c5be1e5ebec7d5bd14f71427d1e84f3dd0314c0f7b2291e5b200ac8c7c3b92560405160405180910390a45050565b600061114b82611013565b61118a576040517f08c379a000000000000000000000000000000000000000000000000000000000815260040161118190612583565b60405180910390fd5b6000611195836107c7565b90508073ffffffffffffffffffffffffffffffffffffffff168473ffffffffffffffffffffffffffffffffffffffff16148061120457508373ffffffffffffffffffffffffffffffffffffffff166111ec84610552565b73ffffffffffffffffffffffffffffffffffffffff16145b8061121557506112148185610f02565b5b91505092915050565b8273ffffffffffffffffffffffffffffffffffffffff1661123e826107c7565b73ffffffffffffffffffffffffffffffffffffffff1614611294576040517f08c379a000000000000000000000000000000000000000000000000000000000815260040161128b90612663565b60405180910390fd5b600073ffffffffffffffffffffffffffffffffffffffff168273ffffffffffffffffffffffffffffffffffffffff161415611304576040517f08c379a00000000000000000000000000000000000000000000000000000000081526004016112fb90612543565b60405180910390fd5b61130f838383611736565b61131a600082611087565b6001600360008573ffffffffffffffffffffffffffffffffffffffff1673ffffffffffffffffffffffffffffffffffffffff168152602001908152602001600020600082825461136a91906128b4565b925050819055506001600360008473ffffffffffffffffffffffffffffffffffffffff1673ffffffffffffffffffffffffffffffffffffffff16815260200190815260200160002060008282546113c1919061282d565b92505081905550816002600083815260200190815260200160002060006101000a81548173ffffffffffffffffffffffffffffffffffffffff021916908373ffffffffffffffffffffffffffffffffffffffff160217905550808273ffffffffffffffffffffffffffffffffffffffff168473ffffffffffffffffffffffffffffffffffffffff167fddf252ad1be2c89b69c2b068fc378daa952ba7f163c4a11628f55a4df523b3ef60405160405180910390a4505050565b6000611b9082109050919050565b6114a282826040518060200160405280600081525061173b565b5050565b60008173ffffffffffffffffffffffffffffffffffffffff166114c8846107c7565b73ffffffffffffffffffffffffffffffffffffffff1614905092915050565b6114f284848461121e565b6114fe84848484611796565b61153d576040517f08c379a000000000000000000000000000000000000000000000000000000000815260040161153490612503565b60405180910390fd5b50505050565b6060600880546115529061299e565b80601f016020809104026020016040519081016040528092919081815260200182805461157e9061299e565b80156115cb5780601f106115a0576101008083540402835291602001916115cb565b820191906000526020600020905b8154815290600101906020018083116115ae57829003601f168201915b5050505050905090565b6060600082141561161d576040518060400160405280600181526020017f30000000000000000000000000000000000000000000000000000000000000008152509050611731565b600082905060005b6000821461164f57808061163890612a01565b915050600a826116489190612883565b9150611625565b60008167ffffffffffffffff81111561166b5761166a612b37565b5b6040519080825280601f01601f19166020018201604052801561169d5781602001600182028036833780820191505090505b5090505b6000851461172a576001826116b691906128b4565b9150600a856116c59190612a4a565b60306116d1919061282d565b60f81b8183815181106116e7576116e6612b08565b5b60200101907effffffffffffffffffffffffffffffffffffffffffffffffffffffffffffff1916908160001a905350600a856117239190612883565b94506116a1565b8093505050505b919050565b505050565b611745838361192d565b6117526000848484611796565b611791576040517f08c379a000000000000000000000000000000000000000000000000000000000815260040161178890612503565b60405180910390fd5b505050565b60006117b78473ffffffffffffffffffffffffffffffffffffffff16610f96565b15611920578373ffffffffffffffffffffffffffffffffffffffff1663150b7a026117e061107f565b8786866040518563ffffffff1660e01b8152600401611802949392919061241a565b602060405180830381600087803b15801561181c57600080fd5b505af192505050801561184d57506040513d601f19601f8201168201806040525081019061184a9190611fdf565b60015b6118d0573d806000811461187d576040519150601f19603f3d011682016040523d82523d6000602084013e611882565b606091505b506000815114156118c8576040517f08c379a00000000000000000000000000000000000000000000000000000000081526004016118bf90612503565b60405180910390fd5b805181602001fd5b63150b7a0260e01b7bffffffffffffffffffffffffffffffffffffffffffffffffffffffff1916817bffffffffffffffffffffffffffffffffffffffffffffffffffffffff191614915050611925565b600190505b949350505050565b600073ffffffffffffffffffffffffffffffffffffffff168273ffffffffffffffffffffffffffffffffffffffff16141561199d576040517f08c379a000000000000000000000000000000000000000000000000000000000815260040161199490612623565b60405180910390fd5b6119a681611013565b156119e6576040517f08c379a00000000000000000000000000000000000000000000000000000000081526004016119dd90612523565b60405180910390fd5b6119f260008383611736565b6001600360008473ffffffffffffffffffffffffffffffffffffffff1673ffffffffffffffffffffffffffffffffffffffff1681526020019081526020016000206000828254611a42919061282d565b92505081905550816002600083815260200190815260200160002060006101000a81548173ffffffffffffffffffffffffffffffffffffffff021916908373ffffffffffffffffffffffffffffffffffffffff160217905550808273ffffffffffffffffffffffffffffffffffffffff16600073ffffffffffffffffffffffffffffffffffffffff167fddf252ad1be2c89b69c2b068fc378daa952ba7f163c4a11628f55a4df523b3ef60405160405180910390a45050565b6000611b0e611b0984612761565b61273c565b90508083825260208201905082856020860282011115611b3157611b30612b6b565b5b60005b85811015611b7f57813567ffffffffffffffff811115611b5757611b56612b66565b5b808601611b648982611ceb565b85526020850194506020840193505050600181019050611b34565b5050509392505050565b6000611b9c611b978461278d565b61273c565b90508083825260208201905082856020860282011115611bbf57611bbe612b6b565b5b60005b85811015611bef5781611bd58882611d19565b845260208401935060208301925050600181019050611bc2565b5050509392505050565b6000611c0c611c07846127b9565b61273c565b905082815260208101848484011115611c2857611c27612b70565b5b611c3384828561295c565b509392505050565b600081359050611c4a81613060565b92915050565b600082601f830112611c6557611c64612b66565b5b8135611c75848260208601611afb565b91505092915050565b600082601f830112611c9357611c92612b66565b5b8135611ca3848260208601611b89565b91505092915050565b600081359050611cbb81613077565b92915050565b600081359050611cd08161308e565b92915050565b600081519050611ce58161308e565b92915050565b600082601f830112611d0057611cff612b66565b5b8135611d10848260208601611bf9565b91505092915050565b600081359050611d28816130a5565b92915050565b600060208284031215611d4457611d43612b7a565b5b6000611d5284828501611c3b565b91505092915050565b60008060408385031215611d7257611d71612b7a565b5b6000611d8085828601611c3b565b9250506020611d9185828601611c3b565b9150509250929050565b600080600060608486031215611db457611db3612b7a565b5b6000611dc286828701611c3b565b9350506020611dd386828701611c3b565b9250506040611de486828701611d19565b9150509250925092565b60008060008060808587031215611e0857611e07612b7a565b5b6000611e1687828801611c3b565b9450506020611e2787828801611c3b565b9350506040611e3887828801611d19565b925050606085013567ffffffffffffffff811115611e5957611e58612b75565b5b611e6587828801611ceb565b91505092959194509250565b60008060408385031215611e8857611e87612b7a565b5b6000611e9685828601611c3b565b9250506020611ea785828601611cac565b9150509250929050565b60008060408385031215611ec857611ec7612b7a565b5b6000611ed685828601611c3b565b9250506020611ee785828601611d19565b9150509250929050565b600060208284031215611f0757611f06612b7a565b5b600082013567ffffffffffffffff811115611f2557611f24612b75565b5b611f3184828501611c7e565b91505092915050565b60008060408385031215611f5157611f50612b7a565b5b600083013567ffffffffffffffff811115611f6f57611f6e612b75565b5b611f7b85828601611c7e565b925050602083013567ffffffffffffffff811115611f9c57611f9b612b75565b5b611fa885828601611c50565b9150509250929050565b600060208284031215611fc857611fc7612b7a565b5b6000611fd684828501611cc1565b91505092915050565b600060208284031215611ff557611ff4612b7a565b5b600061200384828501611cd6565b91505092915050565b60006020828403121561202257612021612b7a565b5b600061203084828501611d19565b91505092915050565b600080604083850312156120505761204f612b7a565b5b600061205e85828601611d19565b925050602083013567ffffffffffffffff81111561207f5761207e612b75565b5b61208b85828601611ceb565b9150509250929050565b61209e816128e8565b82525050565b6120ad816128fa565b82525050565b60006120be826127ea565b6120c88185612800565b93506120d881856020860161296b565b6120e181612b7f565b840191505092915050565b60006120f7826127f5565b6121018185612811565b935061211181856020860161296b565b61211a81612b7f565b840191505092915050565b6000612130826127f5565b61213a8185612822565b935061214a81856020860161296b565b80840191505092915050565b6000612163602883612811565b915061216e82612b90565b604082019050919050565b6000612186602e83612811565b915061219182612bdf565b604082019050919050565b60006121a9601d83612811565b91506121b482612c2e565b602082019050919050565b60006121cc603283612811565b91506121d782612c57565b604082019050919050565b60006121ef601c83612811565b91506121fa82612ca6565b602082019050919050565b6000612212602483612811565b915061221d82612ccf565b604082019050919050565b6000612235601983612811565b915061224082612d1e565b602082019050919050565b6000612258602c83612811565b915061226382612d47565b604082019050919050565b600061227b601283612811565b915061228682612d96565b602082019050919050565b600061229e603883612811565b91506122a982612dbf565b604082019050919050565b60006122c1602a83612811565b91506122cc82612e0e565b604082019050919050565b60006122e4602983612811565b91506122ef82612e5d565b604082019050919050565b6000612307602083612811565b915061231282612eac565b602082019050919050565b600061232a602c83612811565b915061233582612ed5565b604082019050919050565b600061234d602983612811565b915061235882612f24565b604082019050919050565b6000612370602f83612811565b915061237b82612f73565b604082019050919050565b6000612393602183612811565b915061239e82612fc2565b604082019050919050565b60006123b6603183612811565b91506123c182613011565b604082019050919050565b6123d581612952565b82525050565b60006123e78285612125565b91506123f38284612125565b91508190509392505050565b60006020820190506124146000830184612095565b92915050565b600060808201905061242f6000830187612095565b61243c6020830186612095565b61244960408301856123cc565b818103606083015261245b81846120b3565b905095945050505050565b600060208201905061247b60008301846120a4565b92915050565b6000602082019050818103600083015261249b81846120ec565b905092915050565b600060208201905081810360008301526124bc81612156565b9050919050565b600060208201905081810360008301526124dc81612179565b9050919050565b600060208201905081810360008301526124fc8161219c565b9050919050565b6000602082019050818103600083015261251c816121bf565b9050919050565b6000602082019050818103600083015261253c816121e2565b9050919050565b6000602082019050818103600083015261255c81612205565b9050919050565b6000602082019050818103600083015261257c81612228565b9050919050565b6000602082019050818103600083015261259c8161224b565b9050919050565b600060208201905081810360008301526125bc8161226e565b9050919050565b600060208201905081810360008301526125dc81612291565b9050919050565b600060208201905081810360008301526125fc816122b4565b9050919050565b6000602082019050818103600083015261261c816122d7565b9050919050565b6000602082019050818103600083015261263c816122fa565b9050919050565b6000602082019050818103600083015261265c8161231d565b9050919050565b6000602082019050818103600083015261267c81612340565b9050919050565b6000602082019050818103600083015261269c81612363565b9050919050565b600060208201905081810360008301526126bc81612386565b9050919050565b600060208201905081810360008301526126dc816123a9565b9050919050565b60006020820190506126f860008301846123cc565b92915050565b600060608201905061271360008301866123cc565b6127206020830185612095565b818103604083015261273281846120b3565b9050949350505050565b6000612746612757565b905061275282826129d0565b919050565b6000604051905090565b600067ffffffffffffffff82111561277c5761277b612b37565b5b602082029050602081019050919050565b600067ffffffffffffffff8211156127a8576127a7612b37565b5b602082029050602081019050919050565b600067ffffffffffffffff8211156127d4576127d3612b37565b5b6127dd82612b7f565b9050602081019050919050565b600081519050919050565b600081519050919050565b600082825260208201905092915050565b600082825260208201905092915050565b600081905092915050565b600061283882612952565b915061284383612952565b9250827fffffffffffffffffffffffffffffffffffffffffffffffffffffffffffffffff0382111561287857612877612a7b565b5b828201905092915050565b600061288e82612952565b915061289983612952565b9250826128a9576128a8612aaa565b5b828204905092915050565b60006128bf82612952565b91506128ca83612952565b9250828210156128dd576128dc612a7b565b5b828203905092915050565b60006128f382612932565b9050919050565b60008115159050919050565b60007fffffffff0000000000000000000000000000000000000000000000000000000082169050919050565b600073ffffffffffffffffffffffffffffffffffffffff82169050919050565b6000819050919050565b82818337600083830152505050565b60005b8381101561298957808201518184015260208101905061296e565b83811115612998576000848401525b50505050565b600060028204905060018216806129b657607f821691505b602082108114156129ca576129c9612ad9565b5b50919050565b6129d982612b7f565b810181811067ffffffffffffffff821117156129f8576129f7612b37565b5b80604052505050565b6000612a0c82612952565b91507fffffffffffffffffffffffffffffffffffffffffffffffffffffffffffffffff821415612a3f57612a3e612a7b565b5b600182019050919050565b6000612a5582612952565b9150612a6083612952565b925082612a7057612a6f612aaa565b5b828206905092915050565b7f4e487b7100000000000000000000000000000000000000000000000000000000600052601160045260246000fd5b7f4e487b7100000000000000000000000000000000000000000000000000000000600052601260045260246000fd5b7f4e487b7100000000000000000000000000000000000000000000000000000000600052602260045260246000fd5b7f4e487b7100000000000000000000000000000000000000000000000000000000600052603260045260246000fd5b7f4e487b7100000000000000000000000000000000000000000000000000000000600052604160045260246000fd5b600080fd5b600080fd5b600080fd5b600080fd5b600080fd5b6000601f19601f8301169050919050565b7f746f6b656e496473206c656e677468206d757374206d6174636820636f6c6f7260008201527f73206c656e677468000000000000000000000000000000000000000000000000602082015250565b7f436f6c6f7220617272617920697320746f6f206269672c20706c65617365207560008201527f736520313678313620696d616765000000000000000000000000000000000000602082015250565b7f53656e646572206973206e6f742074686520746f6b656e206f776e6572000000600082015250565b7f4552433732313a207472616e7366657220746f206e6f6e20455243373231526560008201527f63656976657220696d706c656d656e7465720000000000000000000000000000602082015250565b7f4552433732313a20746f6b656e20616c7265616479206d696e74656400000000600082015250565b7f4552433732313a207472616e7366657220746f20746865207a65726f2061646460008201527f7265737300000000000000000000000000000000000000000000000000000000602082015250565b7f4552433732313a20617070726f766520746f2063616c6c657200000000000000600082015250565b7f4552433732313a206f70657261746f7220717565727920666f72206e6f6e657860008201527f697374656e7420746f6b656e0000000000000000000000000000000000000000602082015250565b7f546f6b656e496420697320696e76616c69640000000000000000000000000000600082015250565b7f4552433732313a20617070726f76652063616c6c6572206973206e6f74206f7760008201527f6e6572206e6f7220617070726f76656420666f7220616c6c0000000000000000602082015250565b7f4552433732313a2062616c616e636520717565727920666f7220746865207a6560008201527f726f206164647265737300000000000000000000000000000000000000000000602082015250565b7f4552433732313a206f776e657220717565727920666f72206e6f6e657869737460008201527f656e7420746f6b656e0000000000000000000000000000000000000000000000602082015250565b7f4552433732313a206d696e7420746f20746865207a65726f2061646472657373600082015250565b7f4552433732313a20617070726f76656420717565727920666f72206e6f6e657860008201527f697374656e7420746f6b656e0000000000000000000000000000000000000000602082015250565b7f4552433732313a207472616e73666572206f6620746f6b656e2074686174206960008201527f73206e6f74206f776e0000000000000000000000000000000000000000000000602082015250565b7f4552433732314d657461646174613a2055524920717565727920666f72206e6f60008201527f6e6578697374656e7420746f6b656e0000000000000000000000000000000000602082015250565b7f4552433732313a20617070726f76616c20746f2063757272656e74206f776e6560008201527f7200000000000000000000000000000000000000000000000000000000000000602082015250565b7f4552433732313a207472616e736665722063616c6c6572206973206e6f74206f60008201527f776e6572206e6f7220617070726f766564000000000000000000000000000000602082015250565b613069816128e8565b811461307457600080fd5b50565b613080816128fa565b811461308b57600080fd5b50565b61309781612906565b81146130a257600080fd5b50565b6130ae81612952565b81146130b957600080fd5b5056fea264697066735822122092e53204a2e980092211130d66e16261830914a239efb9f4dfb358819fdbf7c264736f6c63430008070033",
  "immutableReferences": {},
  "source": "pragma solidity ^0.8.4;\r\n\r\nimport \"@openzeppelin/contracts/token/ERC721/ERC721.sol\";\r\n\r\n/**\r\n  @dev ERC721, Non-Fungible Token, implementation.  There are 7056\r\n    available NFTs.  Includes functionality to mint new tiles as well\r\n    as to update the color of the tile.\r\n */\r\ncontract CryptoCanvas is ERC721 {\r\n    address admin;\r\n    uint maxColorSize;\r\n    string uri;\r\n\r\n    /**\r\n     * @dev Emitted when `owner` changes the `tokenId` color to `updatedColor`.\r\n     */ \r\n    event ColorBytesUpdated(uint tokenId, address owner, bytes updatedColor);\r\n\r\n    constructor(uint[] memory tokenIds, string memory uriIn) ERC721(\"Tiles\", \"TIL\") {\r\n        admin = msg.sender;\r\n        maxColorSize = 5000;\r\n        uri = uriIn;\r\n        _setInitialTiles(tokenIds); //Set initial tiles\r\n    }\r\n\r\n    /**\r\n     * @dev Mints the initial set of tiles on contract creation.\r\n     */\r\n    function _setInitialTiles(uint[] memory tokenIds) private {\r\n        // require(tokenIds.length > 0 && msg.sender == admin);\r\n        for (uint i = 0; i < tokenIds.length; i++) {\r\n            require(_isValidToken(tokenIds[i]));\r\n            _safeMint(msg.sender, tokenIds[i]);\r\n        }\r\n    }\r\n\r\n    /**\r\n     * @dev Returns the owner of the tile, or the empty address if no\r\n     * owner exists \r\n     */\r\n    function getOwner(uint tokenId) external view returns (address) {\r\n        require(_isValidToken(tokenId));\r\n\r\n        if (exists(tokenId)) {\r\n            return ownerOf(tokenId);\r\n        } else {\r\n            return address(0);\r\n        }\r\n    }\r\n\r\n    /**\r\n     * @dev Mints new tiles for all `tokenIds` if it doesn't already exist.\r\n     * Emits a {Transfer} event.\r\n     */\r\n    function mintTiles(uint[] memory tokenIds) external {\r\n        require(tokenIds.length > 0 && tokenIds.length <= 20);\r\n        require(balanceOf(msg.sender) + tokenIds.length <= 100);\r\n        for (uint i = 0; i < tokenIds.length; i++) {\r\n            require(_isValidToken(tokenIds[i]));\r\n            _safeMint(msg.sender, tokenIds[i]);\r\n        }\r\n    }\r\n\r\n    /**\r\n     * @dev Mints new tile for `tokenId` if it doesn't already exist.\r\n     * Emits a {Transfer} event.\r\n     */\r\n    function mintTile(uint tokenId) external {\r\n        require(balanceOf(msg.sender) < 100);\r\n        require(_isValidToken(tokenId));\r\n        _safeMint(msg.sender, tokenId);\r\n    }\r\n\r\n    /**\r\n     * @dev Overriding URI from {ERC721-_baseURI}.  Used to display the NFT metadata.\r\n     */\r\n    function _baseURI() override internal view returns (string memory) {\r\n        return uri;\r\n    }\r\n\r\n    /**\r\n     * @dev Sets the color for all `tokenIds`.  `colors` will be updated for `tokenIds` with the same index.\r\n     * Setting the color is actually just emitting an event.\r\n     * For example tokenIds=[10,50] and colors=[x,y] would emit events \r\n     * ColorBytesUpdated(10, <msg.sender>, x) and ColorBytesUpdated(50, <msg.sender>, y)\r\n     *\r\n     * Requires tokenIds and colors to be the same length.\r\n     */\r\n    function setColorBytesBulk(uint[] memory tokenIds, bytes[] memory colors) external {\r\n        require(tokenIds.length > 0 && tokenIds.length == colors.length, \"tokenIds length must match colors length\");\r\n        for (uint i = 0; i < tokenIds.length; i++) {\r\n            setColorBytes(tokenIds[i], colors[i]);\r\n        }\r\n    }\r\n\r\n    /**\r\n     * @dev Sets the `color` for `tokenId`\r\n     * Setting the color is actually just emitting an event.\r\n     * Does a sanity check to ensure people aren't uploading full size images or other large data.\r\n     * Full validation of the color byte array is handled off chain to ensure it is a png, jpg, or gif.\r\n     *\r\n     * Emits a {ColorBytesUpdated} event\r\n     */\r\n    function setColorBytes(uint tokenId, bytes memory color) public {\r\n        require(_isValidToken(tokenId), \"TokenId is invalid\");\r\n        require(_isOwner(tokenId, msg.sender), \"Sender is not the token owner\");\r\n\r\n        require(color.length < maxColorSize, \"Color array is too big, please use 16x16 image\");\r\n\r\n        emit ColorBytesUpdated(tokenId, msg.sender, color);\r\n    }\r\n\r\n\r\n    /**\r\n     * @dev Check if `tokenId` exists.\r\n     */\r\n    function exists(uint tokenId) public view returns (bool) {\r\n        require(_isValidToken(tokenId));\r\n\r\n        return _exists(tokenId);\r\n    }\r\n\r\n    /**\r\n     * @dev Tokens 0 - 7055 are valid\r\n     */\r\n    function _isValidToken(uint tokenId) private pure returns (bool) {\r\n        return tokenId < 7056;\r\n    }\r\n\r\n    function _isOwner(uint tokenId, address addr) private view returns (bool){\r\n        return ownerOf(tokenId) == addr;\r\n    }\r\n\r\n}",
  "sourcePath": "C:/Users/Zach/IdeaProjects/canvas-contracts/contracts/CryptoCanvas.sol",
  "compiler": {
    "name": "solc",
    "version": "0.8.7+commit.e28d00a7.Emscripten.clang"
  },
  "schemaVersion": "3.4.1",
  "updatedAt": "2021-08-29T15:25:53.480Z",
  "networkType": "ethereum",
  "devdoc": {
    "details": "ERC721, Non-Fungible Token, implementation.  There are 7056 available NFTs.  Includes functionality to mint new tiles as well as to update the color of the tile.",
    "events": {
      "ColorBytesUpdated(uint256,address,bytes)": {
        "details": "Emitted when `owner` changes the `tokenId` color to `updatedColor`."
      }
    },
    "kind": "dev",
    "methods": {
      "approve(address,uint256)": {
        "details": "See {IERC721-approve}."
      },
      "balanceOf(address)": {
        "details": "See {IERC721-balanceOf}."
      },
      "exists(uint256)": {
        "details": "Check if `tokenId` exists."
      },
      "getApproved(uint256)": {
        "details": "See {IERC721-getApproved}."
      },
      "getOwner(uint256)": {
        "details": "Returns the owner of the tile, or the empty address if no owner exists "
      },
      "isApprovedForAll(address,address)": {
        "details": "See {IERC721-isApprovedForAll}."
      },
      "mintTile(uint256)": {
        "details": "Mints new tile for `tokenId` if it doesn't already exist. Emits a {Transfer} event."
      },
      "mintTiles(uint256[])": {
        "details": "Mints new tiles for all `tokenIds` if it doesn't already exist. Emits a {Transfer} event."
      },
      "name()": {
        "details": "See {IERC721Metadata-name}."
      },
      "ownerOf(uint256)": {
        "details": "See {IERC721-ownerOf}."
      },
      "safeTransferFrom(address,address,uint256)": {
        "details": "See {IERC721-safeTransferFrom}."
      },
      "safeTransferFrom(address,address,uint256,bytes)": {
        "details": "See {IERC721-safeTransferFrom}."
      },
      "setApprovalForAll(address,bool)": {
        "details": "See {IERC721-setApprovalForAll}."
      },
      "setColorBytes(uint256,bytes)": {
        "details": "Sets the `color` for `tokenId` Setting the color is actually just emitting an event. Does a sanity check to ensure people aren't uploading full size images or other large data. Full validation of the color byte array is handled off chain to ensure it is a png, jpg, or gif. Emits a {ColorBytesUpdated} event"
      },
      "setColorBytesBulk(uint256[],bytes[])": {
        "details": "Sets the color for all `tokenIds`.  `colors` will be updated for `tokenIds` with the same index. Setting the color is actually just emitting an event. For example tokenIds=[10,50] and colors=[x,y] would emit events  ColorBytesUpdated(10, <msg.sender>, x) and ColorBytesUpdated(50, <msg.sender>, y) Requires tokenIds and colors to be the same length."
      },
      "supportsInterface(bytes4)": {
        "details": "See {IERC165-supportsInterface}."
      },
      "symbol()": {
        "details": "See {IERC721Metadata-symbol}."
      },
      "tokenURI(uint256)": {
        "details": "See {IERC721Metadata-tokenURI}."
      },
      "transferFrom(address,address,uint256)": {
        "details": "See {IERC721-transferFrom}."
      }
    },
    "version": 1
  },
  "userdoc": {
    "kind": "user",
    "methods": {},
    "version": 1
  }
}