{
  "contractName": "CryptoCanvas",
  "abi": [
    {
      "inputs": [
        {
          "internalType": "uint256",
          "name": "_tokenCount",
          "type": "uint256"
        },
        {
          "internalType": "string",
          "name": "_uri",
          "type": "string"
        }
      ],
      "stateMutability": "nonpayable",
      "type": "constructor"
    },
    {
      "anonymous": false,
      "inputs": [
        {
          "indexed": true,
          "internalType": "address",
          "name": "owner",
          "type": "address"
        },
        {
          "indexed": true,
          "internalType": "address",
          "name": "approved",
          "type": "address"
        },
        {
          "indexed": true,
          "internalType": "uint256",
          "name": "tokenId",
          "type": "uint256"
        }
      ],
      "name": "Approval",
      "type": "event"
    },
    {
      "anonymous": false,
      "inputs": [
        {
          "indexed": true,
          "internalType": "address",
          "name": "owner",
          "type": "address"
        },
        {
          "indexed": true,
          "internalType": "address",
          "name": "operator",
          "type": "address"
        },
        {
          "indexed": false,
          "internalType": "bool",
          "name": "approved",
          "type": "bool"
        }
      ],
      "name": "ApprovalForAll",
      "type": "event"
    },
    {
      "anonymous": false,
      "inputs": [
        {
          "indexed": false,
          "internalType": "uint256",
          "name": "tokenId",
          "type": "uint256"
        },
        {
          "indexed": false,
          "internalType": "address",
          "name": "owner",
          "type": "address"
        },
        {
          "indexed": false,
          "internalType": "bytes",
          "name": "updatedColor",
          "type": "bytes"
        }
      ],
      "name": "ColorBytesUpdated",
      "type": "event"
    },
    {
      "anonymous": false,
      "inputs": [
        {
          "indexed": true,
          "internalType": "uint256",
          "name": "fromTokenId",
          "type": "uint256"
        },
        {
          "indexed": false,
          "internalType": "uint256",
          "name": "toTokenId",
          "type": "uint256"
        },
        {
          "indexed": true,
          "internalType": "address",
          "name": "fromAddress",
          "type": "address"
        },
        {
          "indexed": true,
          "internalType": "address",
          "name": "toAddress",
          "type": "address"
        }
      ],
      "name": "ConsecutiveTransfer",
      "type": "event"
    },
    {
      "anonymous": false,
      "inputs": [
        {
          "indexed": true,
          "internalType": "address",
          "name": "previousOwner",
          "type": "address"
        },
        {
          "indexed": true,
          "internalType": "address",
          "name": "newOwner",
          "type": "address"
        }
      ],
      "name": "OwnershipTransferred",
      "type": "event"
    },
    {
      "anonymous": false,
      "inputs": [
        {
          "indexed": true,
          "internalType": "address",
          "name": "from",
          "type": "address"
        },
        {
          "indexed": true,
          "internalType": "address",
          "name": "to",
          "type": "address"
        },
        {
          "indexed": true,
          "internalType": "uint256",
          "name": "tokenId",
          "type": "uint256"
        }
      ],
      "name": "Transfer",
      "type": "event"
    },
    {
      "inputs": [
        {
          "internalType": "address",
          "name": "to",
          "type": "address"
        },
        {
          "internalType": "uint256",
          "name": "tokenId",
          "type": "uint256"
        }
      ],
      "name": "approve",
      "outputs": [],
      "stateMutability": "nonpayable",
      "type": "function"
    },
    {
      "inputs": [
        {
          "internalType": "address",
          "name": "owner",
          "type": "address"
        }
      ],
      "name": "balanceOf",
      "outputs": [
        {
          "internalType": "uint256",
          "name": "",
          "type": "uint256"
        }
      ],
      "stateMutability": "view",
      "type": "function",
      "constant": true
    },
    {
      "inputs": [
        {
          "internalType": "uint256",
          "name": "tokenId",
          "type": "uint256"
        }
      ],
      "name": "getApproved",
      "outputs": [
        {
          "internalType": "address",
          "name": "",
          "type": "address"
        }
      ],
      "stateMutability": "view",
      "type": "function",
      "constant": true
    },
    {
      "inputs": [
        {
          "internalType": "address",
          "name": "owner",
          "type": "address"
        },
        {
          "internalType": "address",
          "name": "operator",
          "type": "address"
        }
      ],
      "name": "isApprovedForAll",
      "outputs": [
        {
          "internalType": "bool",
          "name": "",
          "type": "bool"
        }
      ],
      "stateMutability": "view",
      "type": "function",
      "constant": true
    },
    {
      "inputs": [],
      "name": "name",
      "outputs": [
        {
          "internalType": "string",
          "name": "",
          "type": "string"
        }
      ],
      "stateMutability": "view",
      "type": "function",
      "constant": true
    },
    {
      "inputs": [],
      "name": "owner",
      "outputs": [
        {
          "internalType": "address",
          "name": "",
          "type": "address"
        }
      ],
      "stateMutability": "view",
      "type": "function",
      "constant": true
    },
    {
      "inputs": [
        {
          "internalType": "uint256",
          "name": "tokenId",
          "type": "uint256"
        }
      ],
      "name": "ownerOf",
      "outputs": [
        {
          "internalType": "address",
          "name": "",
          "type": "address"
        }
      ],
      "stateMutability": "view",
      "type": "function",
      "constant": true
    },
    {
      "inputs": [],
      "name": "renounceOwnership",
      "outputs": [],
      "stateMutability": "nonpayable",
      "type": "function"
    },
    {
      "inputs": [
        {
          "internalType": "address",
          "name": "from",
          "type": "address"
        },
        {
          "internalType": "address",
          "name": "to",
          "type": "address"
        },
        {
          "internalType": "uint256",
          "name": "tokenId",
          "type": "uint256"
        }
      ],
      "name": "safeTransferFrom",
      "outputs": [],
      "stateMutability": "nonpayable",
      "type": "function"
    },
    {
      "inputs": [
        {
          "internalType": "address",
          "name": "from",
          "type": "address"
        },
        {
          "internalType": "address",
          "name": "to",
          "type": "address"
        },
        {
          "internalType": "uint256",
          "name": "tokenId",
          "type": "uint256"
        },
        {
          "internalType": "bytes",
          "name": "_data",
          "type": "bytes"
        }
      ],
      "name": "safeTransferFrom",
      "outputs": [],
      "stateMutability": "nonpayable",
      "type": "function"
    },
    {
      "inputs": [
        {
          "internalType": "address",
          "name": "operator",
          "type": "address"
        },
        {
          "internalType": "bool",
          "name": "approved",
          "type": "bool"
        }
      ],
      "name": "setApprovalForAll",
      "outputs": [],
      "stateMutability": "nonpayable",
      "type": "function"
    },
    {
      "inputs": [
        {
          "internalType": "bytes4",
          "name": "interfaceId",
          "type": "bytes4"
        }
      ],
      "name": "supportsInterface",
      "outputs": [
        {
          "internalType": "bool",
          "name": "",
          "type": "bool"
        }
      ],
      "stateMutability": "view",
      "type": "function",
      "constant": true
    },
    {
      "inputs": [],
      "name": "symbol",
      "outputs": [
        {
          "internalType": "string",
          "name": "",
          "type": "string"
        }
      ],
      "stateMutability": "view",
      "type": "function",
      "constant": true
    },
    {
      "inputs": [
        {
          "internalType": "uint256",
          "name": "tokenId",
          "type": "uint256"
        }
      ],
      "name": "tokenURI",
      "outputs": [
        {
          "internalType": "string",
          "name": "",
          "type": "string"
        }
      ],
      "stateMutability": "view",
      "type": "function",
      "constant": true
    },
    {
      "inputs": [
        {
          "internalType": "address",
          "name": "from",
          "type": "address"
        },
        {
          "internalType": "address",
          "name": "to",
          "type": "address"
        },
        {
          "internalType": "uint256",
          "name": "tokenId",
          "type": "uint256"
        }
      ],
      "name": "transferFrom",
      "outputs": [],
      "stateMutability": "nonpayable",
      "type": "function"
    },
    {
      "inputs": [
        {
          "internalType": "address",
          "name": "newOwner",
          "type": "address"
        }
      ],
      "name": "transferOwnership",
      "outputs": [],
      "stateMutability": "nonpayable",
      "type": "function"
    },
    {
      "inputs": [
        {
          "internalType": "uint256",
          "name": "tokenId",
          "type": "uint256"
        }
      ],
      "name": "getOwner",
      "outputs": [
        {
          "internalType": "address",
          "name": "",
          "type": "address"
        }
      ],
      "stateMutability": "view",
      "type": "function",
      "constant": true
    },
    {
      "inputs": [
        {
          "internalType": "uint256[]",
          "name": "tokenIds",
          "type": "uint256[]"
        },
        {
          "internalType": "bytes[]",
          "name": "colors",
          "type": "bytes[]"
        }
      ],
      "name": "setColorBytesBulk",
      "outputs": [],
      "stateMutability": "nonpayable",
      "type": "function"
    },
    {
      "inputs": [
        {
          "internalType": "uint256",
          "name": "tokenId",
          "type": "uint256"
        },
        {
          "internalType": "bytes",
          "name": "color",
          "type": "bytes"
        }
      ],
      "name": "setColorBytes",
      "outputs": [],
      "stateMutability": "nonpayable",
      "type": "function"
    }
  ],
  "bytecode": "0x60806040523480156200001157600080fd5b506040516200382138038062003821833981810160405281019062000037919062000571565b6040518060400160405280600581526020017f54696c65730000000000000000000000000000000000000000000000000000008152506040518060400160405280600381526020017f54494c0000000000000000000000000000000000000000000000000000000000815250620000c3620000b76200017460201b60201c565b6200017c60201b60201c565b8160019080519060200190620000db9291906200042c565b508060029080519060200190620000f49291906200042c565b50505033600960006101000a81548173ffffffffffffffffffffffffffffffffffffffff021916908373ffffffffffffffffffffffffffffffffffffffff160217905550620f4240600a8190555080600b90805190602001906200015a9291906200042c565b506200016c826200024060201b60201c565b50506200089a565b600033905090565b60008060009054906101000a900473ffffffffffffffffffffffffffffffffffffffff169050816000806101000a81548173ffffffffffffffffffffffffffffffffffffffff021916908373ffffffffffffffffffffffffffffffffffffffff1602179055508173ffffffffffffffffffffffffffffffffffffffff168173ffffffffffffffffffffffffffffffffffffffff167f8be0079c531659141344cd1fd0a4f28419497f9722a3daafe3b4186f6b6457e060405160405180910390a35050565b620002506200040360201b60201c565b73ffffffffffffffffffffffffffffffffffffffff163373ffffffffffffffffffffffffffffffffffffffff16146200028857600080fd5b600060075414620002d0576040517f08c379a0000000000000000000000000000000000000000000000000000000008152600401620002c7906200060f565b60405180910390fd5b60008111620002de57600080fd5b806007819055508060046000620002fa6200040360201b60201c565b73ffffffffffffffffffffffffffffffffffffffff1673ffffffffffffffffffffffffffffffffffffffff1681526020019081526020016000208190555033600860006101000a81548173ffffffffffffffffffffffffffffffffffffffff021916908373ffffffffffffffffffffffffffffffffffffffff160217905550620003896200040360201b60201c565b73ffffffffffffffffffffffffffffffffffffffff16600073ffffffffffffffffffffffffffffffffffffffff1660007fdeaa91b6123d068f5821d0fb0678463d1a8a6079fe8af5de3ce5e896dcf9133d600185620003e99190620006be565b604051620003f8919062000631565b60405180910390a450565b60008060009054906101000a900473ffffffffffffffffffffffffffffffffffffffff16905090565b8280546200043a9062000739565b90600052602060002090601f0160209004810192826200045e5760008555620004aa565b82601f106200047957805160ff1916838001178555620004aa565b82800160010185558215620004aa579182015b82811115620004a95782518255916020019190600101906200048c565b5b509050620004b99190620004bd565b5090565b5b80821115620004d8576000816000905550600101620004be565b5090565b6000620004f3620004ed8462000677565b6200064e565b90508281526020810184848401111562000512576200051162000837565b5b6200051f84828562000703565b509392505050565b600082601f8301126200053f576200053e62000832565b5b815162000551848260208601620004dc565b91505092915050565b6000815190506200056b8162000880565b92915050565b600080604083850312156200058b576200058a62000841565b5b60006200059b858286016200055a565b925050602083015167ffffffffffffffff811115620005bf57620005be6200083c565b5b620005cd8582860162000527565b9150509250929050565b6000620005e6601783620006ad565b9150620005f38262000857565b602082019050919050565b6200060981620006f9565b82525050565b600060208201905081810360008301526200062a81620005d7565b9050919050565b6000602082019050620006486000830184620005fe565b92915050565b60006200065a6200066d565b90506200066882826200076f565b919050565b6000604051905090565b600067ffffffffffffffff82111562000695576200069462000803565b5b620006a08262000846565b9050602081019050919050565b600082825260208201905092915050565b6000620006cb82620006f9565b9150620006d883620006f9565b925082821015620006ee57620006ed620007a5565b5b828203905092915050565b6000819050919050565b60005b838110156200072357808201518184015260208101905062000706565b8381111562000733576000848401525b50505050565b600060028204905060018216806200075257607f821691505b60208210811415620007695762000768620007d4565b5b50919050565b6200077a8262000846565b810181811067ffffffffffffffff821117156200079c576200079b62000803565b5b80604052505050565b7f4e487b7100000000000000000000000000000000000000000000000000000000600052601160045260246000fd5b7f4e487b7100000000000000000000000000000000000000000000000000000000600052602260045260246000fd5b7f4e487b7100000000000000000000000000000000000000000000000000000000600052604160045260246000fd5b600080fd5b600080fd5b600080fd5b600080fd5b6000601f19601f8301169050919050565b7f596f752063616e206f6e6c79206d696e74206f6e636521000000000000000000600082015250565b6200088b81620006f9565b81146200089757600080fd5b50565b612f7780620008aa6000396000f3fe608060405234801561001057600080fd5b50600436106101215760003560e01c8063719f61f5116100ad578063b88d4fde11610071578063b88d4fde146102f2578063c41a360a1461030e578063c87b56dd1461033e578063e985e9c51461036e578063f2fde38b1461039e57610121565b8063719f61f514610262578063720dce6a1461027e5780638da5cb5b1461029a57806395d89b41146102b8578063a22cb465146102d657610121565b806323b872dd116100f457806323b872dd146101c057806342842e0e146101dc5780636352211e146101f857806370a0823114610228578063715018a61461025857610121565b806301ffc9a71461012657806306fdde0314610156578063081812fc14610174578063095ea7b3146101a4575b600080fd5b610140600480360381019061013b9190611e37565b6103ba565b60405161014d91906122eb565b60405180910390f35b61015e61049c565b60405161016b9190612306565b60405180910390f35b61018e60048036038101906101899190611e91565b61052e565b60405161019b9190612284565b60405180910390f35b6101be60048036038101906101b99190611d7f565b6105b3565b005b6101da60048036038101906101d59190611c69565b6106cb565b005b6101f660048036038101906101f19190611c69565b61072b565b005b610212600480360381019061020d9190611e91565b61074b565b60405161021f9190612284565b60405180910390f35b610242600480360381019061023d9190611bfc565b610833565b60405161024f9190612568565b60405180910390f35b6102606108eb565b005b61027c60048036038101906102779190611dbf565b610973565b005b61029860048036038101906102939190611ebe565b610a26565b005b6102a2610b3b565b6040516102af9190612284565b60405180910390f35b6102c0610b64565b6040516102cd9190612306565b60405180910390f35b6102f060048036038101906102eb9190611d3f565b610bf6565b005b61030c60048036038101906103079190611cbc565b610d77565b005b61032860048036038101906103239190611e91565b610dd9565b6040516103359190612284565b60405180910390f35b61035860048036038101906103539190611e91565b610e03565b6040516103659190612306565b60405180910390f35b61038860048036038101906103839190611c29565b610eaa565b60405161039591906122eb565b60405180910390f35b6103b860048036038101906103b39190611bfc565b610f3e565b005b60007f80ac58cd000000000000000000000000000000000000000000000000000000007bffffffffffffffffffffffffffffffffffffffffffffffffffffffff1916827bffffffffffffffffffffffffffffffffffffffffffffffffffffffff1916148061048557507f5b5e139f000000000000000000000000000000000000000000000000000000007bffffffffffffffffffffffffffffffffffffffffffffffffffffffff1916827bffffffffffffffffffffffffffffffffffffffffffffffffffffffff1916145b80610495575061049482611036565b5b9050919050565b6060600180546104ab90612823565b80601f01602080910402602001604051908101604052809291908181526020018280546104d790612823565b80156105245780601f106104f957610100808354040283529160200191610524565b820191906000526020600020905b81548152906001019060200180831161050757829003601f168201915b5050505050905090565b6000610539826110a0565b610578576040517f08c379a000000000000000000000000000000000000000000000000000000000815260040161056f906124a8565b60405180910390fd5b6005600083815260200190815260200160002060009054906101000a900473ffffffffffffffffffffffffffffffffffffffff169050919050565b60006105be8261074b565b90508073ffffffffffffffffffffffffffffffffffffffff168373ffffffffffffffffffffffffffffffffffffffff16141561062f576040517f08c379a000000000000000000000000000000000000000000000000000000000815260040161062690612528565b60405180910390fd5b8073ffffffffffffffffffffffffffffffffffffffff1661064e6110ae565b73ffffffffffffffffffffffffffffffffffffffff16148061067d575061067c816106776110ae565b610eaa565b5b6106bc576040517f08c379a00000000000000000000000000000000000000000000000000000000081526004016106b390612468565b60405180910390fd5b6106c683836110b6565b505050565b6106dc6106d66110ae565b8261116f565b61071b576040517f08c379a000000000000000000000000000000000000000000000000000000000815260040161071290612548565b60405180910390fd5b61072683838361124d565b505050565b61074683838360405180602001604052806000815250610d77565b505050565b60006007548210610791576040517f08c379a0000000000000000000000000000000000000000000000000000000008152600401610788906123c8565b60405180910390fd5b60006003600084815260200190815260200160002060009054906101000a900473ffffffffffffffffffffffffffffffffffffffff169050600073ffffffffffffffffffffffffffffffffffffffff168173ffffffffffffffffffffffffffffffffffffffff16141561082957600860009054906101000a900473ffffffffffffffffffffffffffffffffffffffff1691505061082e565b809150505b919050565b60008073ffffffffffffffffffffffffffffffffffffffff168273ffffffffffffffffffffffffffffffffffffffff1614156108a4576040517f08c379a000000000000000000000000000000000000000000000000000000000815260040161089b90612488565b60405180910390fd5b600460008373ffffffffffffffffffffffffffffffffffffffff1673ffffffffffffffffffffffffffffffffffffffff168152602001908152602001600020549050919050565b6108f36110ae565b73ffffffffffffffffffffffffffffffffffffffff16610911610b3b565b73ffffffffffffffffffffffffffffffffffffffff1614610967576040517f08c379a000000000000000000000000000000000000000000000000000000000815260040161095e906124c8565b60405180910390fd5b61097160006114a9565b565b60008251118015610985575080518251145b6109c4576040517f08c379a00000000000000000000000000000000000000000000000000000000081526004016109bb90612328565b60405180910390fd5b60005b8251811015610a2157610a0e8382815181106109e6576109e561298d565b5b6020026020010151838381518110610a0157610a0061298d565b5b6020026020010151610a26565b8080610a1990612886565b9150506109c7565b505050565b610a2f8261156d565b610a6e576040517f08c379a0000000000000000000000000000000000000000000000000000000008152600401610a6590612448565b60405180910390fd5b610a788233611580565b610ab7576040517f08c379a0000000000000000000000000000000000000000000000000000000008152600401610aae90612368565b60405180910390fd5b600a54815110610afc576040517f08c379a0000000000000000000000000000000000000000000000000000000008152600401610af390612348565b60405180910390fd5b7ff9785b36c26c205a690a0a7bfb3acb423155645c2cd9c2e27e913375f2b596a6823383604051610b2f93929190612583565b60405180910390a15050565b60008060009054906101000a900473ffffffffffffffffffffffffffffffffffffffff16905090565b606060028054610b7390612823565b80601f0160208091040260200160405190810160405280929190818152602001828054610b9f90612823565b8015610bec5780601f10610bc157610100808354040283529160200191610bec565b820191906000526020600020905b815481529060010190602001808311610bcf57829003601f168201915b5050505050905090565b610bfe6110ae565b73ffffffffffffffffffffffffffffffffffffffff168273ffffffffffffffffffffffffffffffffffffffff161415610c6c576040517f08c379a0000000000000000000000000000000000000000000000000000000008152600401610c6390612408565b60405180910390fd5b8060066000610c796110ae565b73ffffffffffffffffffffffffffffffffffffffff1673ffffffffffffffffffffffffffffffffffffffff16815260200190815260200160002060008473ffffffffffffffffffffffffffffffffffffffff1673ffffffffffffffffffffffffffffffffffffffff16815260200190815260200160002060006101000a81548160ff0219169083151502179055508173ffffffffffffffffffffffffffffffffffffffff16610d266110ae565b73ffffffffffffffffffffffffffffffffffffffff167f17307eab39ab6107e8899845ad3d59bd9653f200f220920489ca2b5937696c3183604051610d6b91906122eb565b60405180910390a35050565b610d88610d826110ae565b8361116f565b610dc7576040517f08c379a0000000000000000000000000000000000000000000000000000000008152600401610dbe90612548565b60405180910390fd5b610dd3848484846115c1565b50505050565b6000610de4826110a0565b15610df957610df28261074b565b9050610dfe565b600090505b919050565b6060610e0e826110a0565b610e4d576040517f08c379a0000000000000000000000000000000000000000000000000000000008152600401610e4490612508565b60405180910390fd5b6000610e5761161d565b90506000815111610e775760405180602001604052806000815250610ea2565b80610e81846116af565b604051602001610e92929190612260565b6040516020818303038152906040525b915050919050565b6000600660008473ffffffffffffffffffffffffffffffffffffffff1673ffffffffffffffffffffffffffffffffffffffff16815260200190815260200160002060008373ffffffffffffffffffffffffffffffffffffffff1673ffffffffffffffffffffffffffffffffffffffff16815260200190815260200160002060009054906101000a900460ff16905092915050565b610f466110ae565b73ffffffffffffffffffffffffffffffffffffffff16610f64610b3b565b73ffffffffffffffffffffffffffffffffffffffff1614610fba576040517f08c379a0000000000000000000000000000000000000000000000000000000008152600401610fb1906124c8565b60405180910390fd5b600073ffffffffffffffffffffffffffffffffffffffff168173ffffffffffffffffffffffffffffffffffffffff16141561102a576040517f08c379a0000000000000000000000000000000000000000000000000000000008152600401611021906123a8565b60405180910390fd5b611033816114a9565b50565b60007f01ffc9a7000000000000000000000000000000000000000000000000000000007bffffffffffffffffffffffffffffffffffffffffffffffffffffffff1916827bffffffffffffffffffffffffffffffffffffffffffffffffffffffff1916149050919050565b600060075482109050919050565b600033905090565b816005600083815260200190815260200160002060006101000a81548173ffffffffffffffffffffffffffffffffffffffff021916908373ffffffffffffffffffffffffffffffffffffffff160217905550808273ffffffffffffffffffffffffffffffffffffffff166111298361074b565b73ffffffffffffffffffffffffffffffffffffffff167f8c5be1e5ebec7d5bd14f71427d1e84f3dd0314c0f7b2291e5b200ac8c7c3b92560405160405180910390a45050565b600061117a826110a0565b6111b9576040517f08c379a00000000000000000000000000000000000000000000000000000000081526004016111b090612428565b60405180910390fd5b60006111c48361074b565b90508073ffffffffffffffffffffffffffffffffffffffff168473ffffffffffffffffffffffffffffffffffffffff16148061123357508373ffffffffffffffffffffffffffffffffffffffff1661121b8461052e565b73ffffffffffffffffffffffffffffffffffffffff16145b8061124457506112438185610eaa565b5b91505092915050565b8273ffffffffffffffffffffffffffffffffffffffff1661126d8261074b565b73ffffffffffffffffffffffffffffffffffffffff16146112c3576040517f08c379a00000000000000000000000000000000000000000000000000000000081526004016112ba906124e8565b60405180910390fd5b600073ffffffffffffffffffffffffffffffffffffffff168273ffffffffffffffffffffffffffffffffffffffff161415611333576040517f08c379a000000000000000000000000000000000000000000000000000000000815260040161132a906123e8565b60405180910390fd5b61133e838383611810565b6113496000826110b6565b6001600460008573ffffffffffffffffffffffffffffffffffffffff1673ffffffffffffffffffffffffffffffffffffffff16815260200190815260200160002060008282546113999190612739565b925050819055506001600460008473ffffffffffffffffffffffffffffffffffffffff1673ffffffffffffffffffffffffffffffffffffffff16815260200190815260200160002060008282546113f091906126b2565b92505081905550816003600083815260200190815260200160002060006101000a81548173ffffffffffffffffffffffffffffffffffffffff021916908373ffffffffffffffffffffffffffffffffffffffff160217905550808273ffffffffffffffffffffffffffffffffffffffff168473ffffffffffffffffffffffffffffffffffffffff167fddf252ad1be2c89b69c2b068fc378daa952ba7f163c4a11628f55a4df523b3ef60405160405180910390a4505050565b60008060009054906101000a900473ffffffffffffffffffffffffffffffffffffffff169050816000806101000a81548173ffffffffffffffffffffffffffffffffffffffff021916908373ffffffffffffffffffffffffffffffffffffffff1602179055508173ffffffffffffffffffffffffffffffffffffffff168173ffffffffffffffffffffffffffffffffffffffff167f8be0079c531659141344cd1fd0a4f28419497f9722a3daafe3b4186f6b6457e060405160405180910390a35050565b6000611577611815565b82109050919050565b60008173ffffffffffffffffffffffffffffffffffffffff166115a28461074b565b73ffffffffffffffffffffffffffffffffffffffff1614905092915050565b6115cc84848461124d565b6115d88484848461181f565b611617576040517f08c379a000000000000000000000000000000000000000000000000000000000815260040161160e90612388565b60405180910390fd5b50505050565b6060600b805461162c90612823565b80601f016020809104026020016040519081016040528092919081815260200182805461165890612823565b80156116a55780601f1061167a576101008083540402835291602001916116a5565b820191906000526020600020905b81548152906001019060200180831161168857829003601f168201915b5050505050905090565b606060008214156116f7576040518060400160405280600181526020017f3000000000000000000000000000000000000000000000000000000000000000815250905061180b565b600082905060005b6000821461172957808061171290612886565b915050600a826117229190612708565b91506116ff565b60008167ffffffffffffffff811115611745576117446129bc565b5b6040519080825280601f01601f1916602001820160405280156117775781602001600182028036833780820191505090505b5090505b60008514611804576001826117909190612739565b9150600a8561179f91906128cf565b60306117ab91906126b2565b60f81b8183815181106117c1576117c061298d565b5b60200101907effffffffffffffffffffffffffffffffffffffffffffffffffffffffffffff1916908160001a905350600a856117fd9190612708565b945061177b565b8093505050505b919050565b505050565b6000600754905090565b60006118408473ffffffffffffffffffffffffffffffffffffffff166119b6565b156119a9578373ffffffffffffffffffffffffffffffffffffffff1663150b7a026118696110ae565b8786866040518563ffffffff1660e01b815260040161188b949392919061229f565b602060405180830381600087803b1580156118a557600080fd5b505af19250505080156118d657506040513d601f19601f820116820180604052508101906118d39190611e64565b60015b611959573d8060008114611906576040519150601f19603f3d011682016040523d82523d6000602084013e61190b565b606091505b50600081511415611951576040517f08c379a000000000000000000000000000000000000000000000000000000000815260040161194890612388565b60405180910390fd5b805181602001fd5b63150b7a0260e01b7bffffffffffffffffffffffffffffffffffffffffffffffffffffffff1916817bffffffffffffffffffffffffffffffffffffffffffffffffffffffff1916149150506119ae565b600190505b949350505050565b600080823b905060008111915050919050565b60006119dc6119d7846125e6565b6125c1565b905080838252602082019050828560208602820111156119ff576119fe6129f0565b5b60005b85811015611a4d57813567ffffffffffffffff811115611a2557611a246129eb565b5b808601611a328982611bb9565b85526020850194506020840193505050600181019050611a02565b5050509392505050565b6000611a6a611a6584612612565b6125c1565b90508083825260208201905082856020860282011115611a8d57611a8c6129f0565b5b60005b85811015611abd5781611aa38882611be7565b845260208401935060208301925050600181019050611a90565b5050509392505050565b6000611ada611ad58461263e565b6125c1565b905082815260208101848484011115611af657611af56129f5565b5b611b018482856127e1565b509392505050565b600081359050611b1881612ee5565b92915050565b600082601f830112611b3357611b326129eb565b5b8135611b438482602086016119c9565b91505092915050565b600082601f830112611b6157611b606129eb565b5b8135611b71848260208601611a57565b91505092915050565b600081359050611b8981612efc565b92915050565b600081359050611b9e81612f13565b92915050565b600081519050611bb381612f13565b92915050565b600082601f830112611bce57611bcd6129eb565b5b8135611bde848260208601611ac7565b91505092915050565b600081359050611bf681612f2a565b92915050565b600060208284031215611c1257611c116129ff565b5b6000611c2084828501611b09565b91505092915050565b60008060408385031215611c4057611c3f6129ff565b5b6000611c4e85828601611b09565b9250506020611c5f85828601611b09565b9150509250929050565b600080600060608486031215611c8257611c816129ff565b5b6000611c9086828701611b09565b9350506020611ca186828701611b09565b9250506040611cb286828701611be7565b9150509250925092565b60008060008060808587031215611cd657611cd56129ff565b5b6000611ce487828801611b09565b9450506020611cf587828801611b09565b9350506040611d0687828801611be7565b925050606085013567ffffffffffffffff811115611d2757611d266129fa565b5b611d3387828801611bb9565b91505092959194509250565b60008060408385031215611d5657611d556129ff565b5b6000611d6485828601611b09565b9250506020611d7585828601611b7a565b9150509250929050565b60008060408385031215611d9657611d956129ff565b5b6000611da485828601611b09565b9250506020611db585828601611be7565b9150509250929050565b60008060408385031215611dd657611dd56129ff565b5b600083013567ffffffffffffffff811115611df457611df36129fa565b5b611e0085828601611b4c565b925050602083013567ffffffffffffffff811115611e2157611e206129fa565b5b611e2d85828601611b1e565b9150509250929050565b600060208284031215611e4d57611e4c6129ff565b5b6000611e5b84828501611b8f565b91505092915050565b600060208284031215611e7a57611e796129ff565b5b6000611e8884828501611ba4565b91505092915050565b600060208284031215611ea757611ea66129ff565b5b6000611eb584828501611be7565b91505092915050565b60008060408385031215611ed557611ed46129ff565b5b6000611ee385828601611be7565b925050602083013567ffffffffffffffff811115611f0457611f036129fa565b5b611f1085828601611bb9565b9150509250929050565b611f238161276d565b82525050565b611f328161277f565b82525050565b6000611f438261266f565b611f4d8185612685565b9350611f5d8185602086016127f0565b611f6681612a04565b840191505092915050565b6000611f7c8261267a565b611f868185612696565b9350611f968185602086016127f0565b611f9f81612a04565b840191505092915050565b6000611fb58261267a565b611fbf81856126a7565b9350611fcf8185602086016127f0565b80840191505092915050565b6000611fe8602883612696565b9150611ff382612a15565b604082019050919050565b600061200b602e83612696565b915061201682612a64565b604082019050919050565b600061202e601d83612696565b915061203982612ab3565b602082019050919050565b6000612051603283612696565b915061205c82612adc565b604082019050919050565b6000612074602683612696565b915061207f82612b2b565b604082019050919050565b6000612097601e83612696565b91506120a282612b7a565b602082019050919050565b60006120ba602483612696565b91506120c582612ba3565b604082019050919050565b60006120dd601983612696565b91506120e882612bf2565b602082019050919050565b6000612100602c83612696565b915061210b82612c1b565b604082019050919050565b6000612123601283612696565b915061212e82612c6a565b602082019050919050565b6000612146603883612696565b915061215182612c93565b604082019050919050565b6000612169602a83612696565b915061217482612ce2565b604082019050919050565b600061218c602c83612696565b915061219782612d31565b604082019050919050565b60006121af602083612696565b91506121ba82612d80565b602082019050919050565b60006121d2602983612696565b91506121dd82612da9565b604082019050919050565b60006121f5602f83612696565b915061220082612df8565b604082019050919050565b6000612218602183612696565b915061222382612e47565b604082019050919050565b600061223b603183612696565b915061224682612e96565b604082019050919050565b61225a816127d7565b82525050565b600061226c8285611faa565b91506122788284611faa565b91508190509392505050565b60006020820190506122996000830184611f1a565b92915050565b60006080820190506122b46000830187611f1a565b6122c16020830186611f1a565b6122ce6040830185612251565b81810360608301526122e08184611f38565b905095945050505050565b60006020820190506123006000830184611f29565b92915050565b600060208201905081810360008301526123208184611f71565b905092915050565b6000602082019050818103600083015261234181611fdb565b9050919050565b6000602082019050818103600083015261236181611ffe565b9050919050565b6000602082019050818103600083015261238181612021565b9050919050565b600060208201905081810360008301526123a181612044565b9050919050565b600060208201905081810360008301526123c181612067565b9050919050565b600060208201905081810360008301526123e18161208a565b9050919050565b60006020820190508181036000830152612401816120ad565b9050919050565b60006020820190508181036000830152612421816120d0565b9050919050565b60006020820190508181036000830152612441816120f3565b9050919050565b6000602082019050818103600083015261246181612116565b9050919050565b6000602082019050818103600083015261248181612139565b9050919050565b600060208201905081810360008301526124a18161215c565b9050919050565b600060208201905081810360008301526124c18161217f565b9050919050565b600060208201905081810360008301526124e1816121a2565b9050919050565b60006020820190508181036000830152612501816121c5565b9050919050565b60006020820190508181036000830152612521816121e8565b9050919050565b600060208201905081810360008301526125418161220b565b9050919050565b600060208201905081810360008301526125618161222e565b9050919050565b600060208201905061257d6000830184612251565b92915050565b60006060820190506125986000830186612251565b6125a56020830185611f1a565b81810360408301526125b78184611f38565b9050949350505050565b60006125cb6125dc565b90506125d78282612855565b919050565b6000604051905090565b600067ffffffffffffffff821115612601576126006129bc565b5b602082029050602081019050919050565b600067ffffffffffffffff82111561262d5761262c6129bc565b5b602082029050602081019050919050565b600067ffffffffffffffff821115612659576126586129bc565b5b61266282612a04565b9050602081019050919050565b600081519050919050565b600081519050919050565b600082825260208201905092915050565b600082825260208201905092915050565b600081905092915050565b60006126bd826127d7565b91506126c8836127d7565b9250827fffffffffffffffffffffffffffffffffffffffffffffffffffffffffffffffff038211156126fd576126fc612900565b5b828201905092915050565b6000612713826127d7565b915061271e836127d7565b92508261272e5761272d61292f565b5b828204905092915050565b6000612744826127d7565b915061274f836127d7565b92508282101561276257612761612900565b5b828203905092915050565b6000612778826127b7565b9050919050565b60008115159050919050565b60007fffffffff0000000000000000000000000000000000000000000000000000000082169050919050565b600073ffffffffffffffffffffffffffffffffffffffff82169050919050565b6000819050919050565b82818337600083830152505050565b60005b8381101561280e5780820151818401526020810190506127f3565b8381111561281d576000848401525b50505050565b6000600282049050600182168061283b57607f821691505b6020821081141561284f5761284e61295e565b5b50919050565b61285e82612a04565b810181811067ffffffffffffffff8211171561287d5761287c6129bc565b5b80604052505050565b6000612891826127d7565b91507fffffffffffffffffffffffffffffffffffffffffffffffffffffffffffffffff8214156128c4576128c3612900565b5b600182019050919050565b60006128da826127d7565b91506128e5836127d7565b9250826128f5576128f461292f565b5b828206905092915050565b7f4e487b7100000000000000000000000000000000000000000000000000000000600052601160045260246000fd5b7f4e487b7100000000000000000000000000000000000000000000000000000000600052601260045260246000fd5b7f4e487b7100000000000000000000000000000000000000000000000000000000600052602260045260246000fd5b7f4e487b7100000000000000000000000000000000000000000000000000000000600052603260045260246000fd5b7f4e487b7100000000000000000000000000000000000000000000000000000000600052604160045260246000fd5b600080fd5b600080fd5b600080fd5b600080fd5b600080fd5b6000601f19601f8301169050919050565b7f746f6b656e496473206c656e677468206d757374206d6174636820636f6c6f7260008201527f73206c656e677468000000000000000000000000000000000000000000000000602082015250565b7f436f6c6f7220617272617920697320746f6f206269672c20706c65617365207560008201527f736520313678313620696d616765000000000000000000000000000000000000602082015250565b7f53656e646572206973206e6f742074686520746f6b656e206f776e6572000000600082015250565b7f4552433732313a207472616e7366657220746f206e6f6e20455243373231526560008201527f63656976657220696d706c656d656e7465720000000000000000000000000000602082015250565b7f4f776e61626c653a206e6577206f776e657220697320746865207a65726f206160008201527f6464726573730000000000000000000000000000000000000000000000000000602082015250565b7f546f6b656e7320686176656e2774206265656e206d696e746564207965740000600082015250565b7f4552433732313a207472616e7366657220746f20746865207a65726f2061646460008201527f7265737300000000000000000000000000000000000000000000000000000000602082015250565b7f4552433732313a20617070726f766520746f2063616c6c657200000000000000600082015250565b7f4552433732313a206f70657261746f7220717565727920666f72206e6f6e657860008201527f697374656e7420746f6b656e0000000000000000000000000000000000000000602082015250565b7f546f6b656e496420697320696e76616c69640000000000000000000000000000600082015250565b7f4552433732313a20617070726f76652063616c6c6572206973206e6f74206f7760008201527f6e6572206e6f7220617070726f76656420666f7220616c6c0000000000000000602082015250565b7f4552433732313a2062616c616e636520717565727920666f7220746865207a6560008201527f726f206164647265737300000000000000000000000000000000000000000000602082015250565b7f4552433732313a20617070726f76656420717565727920666f72206e6f6e657860008201527f697374656e7420746f6b656e0000000000000000000000000000000000000000602082015250565b7f4f776e61626c653a2063616c6c6572206973206e6f7420746865206f776e6572600082015250565b7f4552433732313a207472616e73666572206f6620746f6b656e2074686174206960008201527f73206e6f74206f776e0000000000000000000000000000000000000000000000602082015250565b7f4552433732314d657461646174613a2055524920717565727920666f72206e6f60008201527f6e6578697374656e7420746f6b656e0000000000000000000000000000000000602082015250565b7f4552433732313a20617070726f76616c20746f2063757272656e74206f776e6560008201527f7200000000000000000000000000000000000000000000000000000000000000602082015250565b7f4552433732313a207472616e736665722063616c6c6572206973206e6f74206f60008201527f776e6572206e6f7220617070726f766564000000000000000000000000000000602082015250565b612eee8161276d565b8114612ef957600080fd5b50565b612f058161277f565b8114612f1057600080fd5b50565b612f1c8161278b565b8114612f2757600080fd5b50565b612f33816127d7565b8114612f3e57600080fd5b5056fea2646970667358221220520716a7753f54ea629e215401a314cec42694be91ff1adb4a33c1a47e2db35664736f6c63430008070033",
  "immutableReferences": {},
  "source": "// SPDX-License-Identifier: MIT\r\n\r\npragma solidity ^0.8.0;\r\n\r\nimport \"../../openzeppelin-contracts/contracts/token/ERC2309/ERC2309.sol\";\r\n\r\n/**\r\n  @dev ERC721, Non-Fungible Token, implementation.  There are 7056\r\n    available NFTs.  Includes functionality to mint new tiles as well\r\n    as to update the color of the tile.\r\n */\r\ncontract CryptoCanvas is ERC2309 {\r\n    address admin;\r\n    uint maxColorSize;\r\n    string uri;\r\n\r\n    /**\r\n     * @dev Emitted when `owner` changes the `tokenId` color to `updatedColor`.\r\n     */ \r\n    event ColorBytesUpdated(uint tokenId, address owner, bytes updatedColor);\r\n\r\n    constructor(uint _tokenCount, string memory _uri) ERC2309(\"Tiles\", \"TIL\") {\r\n        admin = msg.sender;\r\n        maxColorSize = 1000000; //1 MB\r\n        uri = _uri;\r\n        _mintConsecutive(_tokenCount); //7056\r\n    }\r\n\r\n    /**\r\n     * @dev Returns the owner of the tile, or the empty address if no\r\n     * owner exists or out of range.\r\n     */\r\n    function getOwner(uint tokenId) external view returns (address) {\r\n        if (_exists(tokenId)) {\r\n            return ownerOf(tokenId);\r\n        } else {\r\n            return address(0);\r\n        }\r\n    }\r\n\r\n\r\n    /**\r\n     * @dev Overriding URI from {ERC721-_baseURI}.  Used to display the NFT metadata.\r\n     */\r\n    function _baseURI() override internal view returns (string memory) {\r\n        return uri;\r\n    }\r\n\r\n    /**\r\n     * @dev Sets the color for all `tokenIds`.  `colors` will be updated for `tokenIds` with the same index.\r\n     * Setting the color is actually just emitting an event.\r\n     * For example tokenIds=[10,50] and colors=[x,y] would emit events \r\n     * ColorBytesUpdated(10, <msg.sender>, x) and ColorBytesUpdated(50, <msg.sender>, y)\r\n     *\r\n     * Requires tokenIds and colors to be the same length.\r\n     */\r\n    function setColorBytesBulk(uint[] memory tokenIds, bytes[] memory colors) external {\r\n        require(tokenIds.length > 0 && tokenIds.length == colors.length, \"tokenIds length must match colors length\");\r\n        for (uint i = 0; i < tokenIds.length; i++) {\r\n            setColorBytes(tokenIds[i], colors[i]);\r\n        }\r\n    }\r\n\r\n    /**\r\n     * @dev Sets the `color` for `tokenId`\r\n     * Setting the color is actually just emitting an event.\r\n     * Does a sanity check to ensure people aren't uploading full size images or other large data.\r\n     * Full validation of the color byte array is handled off chain to ensure it is a png, jpg, or gif.\r\n     *\r\n     * Emits a {ColorBytesUpdated} event\r\n     */\r\n    function setColorBytes(uint tokenId, bytes memory color) public {\r\n        require(_isValidToken(tokenId), \"TokenId is invalid\");\r\n        require(_isOwner(tokenId, msg.sender), \"Sender is not the token owner\");\r\n\r\n        require(color.length < maxColorSize, \"Color array is too big, please use 16x16 image\");\r\n\r\n        emit ColorBytesUpdated(tokenId, msg.sender, color);\r\n    }\r\n\r\n    /**\r\n     * @dev Tokens 0 - 7055 are valid\r\n     */\r\n    function _isValidToken(uint tokenId) private view returns (bool) {\r\n        return tokenId < _getTokenCount();\r\n    }\r\n\r\n    function _isOwner(uint tokenId, address addr) private view returns (bool){\r\n        return ownerOf(tokenId) == addr;\r\n    }\r\n\r\n}",
  "sourcePath": "C:/Users/Zach/IdeaProjects/canvas-contracts/contracts/CryptoCanvas.sol",
  "compiler": {
    "name": "solc",
    "version": "0.8.7+commit.e28d00a7.Emscripten.clang"
  },
  "schemaVersion": "3.4.1",
  "updatedAt": "2021-09-19T17:18:32.225Z",
  "networkType": "ethereum",
  "devdoc": {
    "details": "ERC721, Non-Fungible Token, implementation.  There are 7056 available NFTs.  Includes functionality to mint new tiles as well as to update the color of the tile.",
    "events": {
      "ColorBytesUpdated(uint256,address,bytes)": {
        "details": "Emitted when `owner` changes the `tokenId` color to `updatedColor`."
      }
    },
    "kind": "dev",
    "methods": {
      "approve(address,uint256)": {
        "details": "See {IERC721-approve}."
      },
      "balanceOf(address)": {
        "details": "See {IERC721-balanceOf}."
      },
      "getApproved(uint256)": {
        "details": "See {IERC721-getApproved}."
      },
      "getOwner(uint256)": {
        "details": "Returns the owner of the tile, or the empty address if no owner exists or out of range."
      },
      "isApprovedForAll(address,address)": {
        "details": "See {IERC721-isApprovedForAll}."
      },
      "name()": {
        "details": "See {IERC721Metadata-name}."
      },
      "owner()": {
        "details": "Returns the address of the current owner."
      },
      "ownerOf(uint256)": {
        "details": "Reimplements ownerOf to default the owner to the contract creator."
      },
      "renounceOwnership()": {
        "details": "Leaves the contract without owner. It will not be possible to call `onlyOwner` functions anymore. Can only be called by the current owner. NOTE: Renouncing ownership will leave the contract without an owner, thereby removing any functionality that is only available to the owner."
      },
      "safeTransferFrom(address,address,uint256)": {
        "details": "See {IERC721-safeTransferFrom}."
      },
      "safeTransferFrom(address,address,uint256,bytes)": {
        "details": "See {IERC721-safeTransferFrom}."
      },
      "setApprovalForAll(address,bool)": {
        "details": "See {IERC721-setApprovalForAll}."
      },
      "setColorBytes(uint256,bytes)": {
        "details": "Sets the `color` for `tokenId` Setting the color is actually just emitting an event. Does a sanity check to ensure people aren't uploading full size images or other large data. Full validation of the color byte array is handled off chain to ensure it is a png, jpg, or gif. Emits a {ColorBytesUpdated} event"
      },
      "setColorBytesBulk(uint256[],bytes[])": {
        "details": "Sets the color for all `tokenIds`.  `colors` will be updated for `tokenIds` with the same index. Setting the color is actually just emitting an event. For example tokenIds=[10,50] and colors=[x,y] would emit events  ColorBytesUpdated(10, <msg.sender>, x) and ColorBytesUpdated(50, <msg.sender>, y) Requires tokenIds and colors to be the same length."
      },
      "supportsInterface(bytes4)": {
        "details": "See {IERC165-supportsInterface}."
      },
      "symbol()": {
        "details": "See {IERC721Metadata-symbol}."
      },
      "tokenURI(uint256)": {
        "details": "See {IERC721Metadata-tokenURI}."
      },
      "transferFrom(address,address,uint256)": {
        "details": "See {IERC721-transferFrom}."
      },
      "transferOwnership(address)": {
        "details": "Transfers ownership of the contract to a new account (`newOwner`). Can only be called by the current owner."
      }
    },
    "version": 1
  },
  "userdoc": {
    "kind": "user",
    "methods": {},
    "version": 1
  }
}