{
  "contractName": "CryptoCanvas",
  "abi": [
    {
      "inputs": [
        {
          "internalType": "uint256",
          "name": "start",
          "type": "uint256"
        },
        {
          "internalType": "uint256",
          "name": "end",
          "type": "uint256"
        },
        {
          "internalType": "string",
          "name": "uriIn",
          "type": "string"
        }
      ],
      "stateMutability": "nonpayable",
      "type": "constructor"
    },
    {
      "anonymous": false,
      "inputs": [
        {
          "indexed": true,
          "internalType": "address",
          "name": "owner",
          "type": "address"
        },
        {
          "indexed": true,
          "internalType": "address",
          "name": "approved",
          "type": "address"
        },
        {
          "indexed": true,
          "internalType": "uint256",
          "name": "tokenId",
          "type": "uint256"
        }
      ],
      "name": "Approval",
      "type": "event"
    },
    {
      "anonymous": false,
      "inputs": [
        {
          "indexed": true,
          "internalType": "address",
          "name": "owner",
          "type": "address"
        },
        {
          "indexed": true,
          "internalType": "address",
          "name": "operator",
          "type": "address"
        },
        {
          "indexed": false,
          "internalType": "bool",
          "name": "approved",
          "type": "bool"
        }
      ],
      "name": "ApprovalForAll",
      "type": "event"
    },
    {
      "anonymous": false,
      "inputs": [
        {
          "indexed": false,
          "internalType": "uint256",
          "name": "tokenId",
          "type": "uint256"
        },
        {
          "indexed": false,
          "internalType": "address",
          "name": "owner",
          "type": "address"
        },
        {
          "indexed": false,
          "internalType": "bytes",
          "name": "updatedColor",
          "type": "bytes"
        }
      ],
      "name": "ColorBytesUpdated",
      "type": "event"
    },
    {
      "anonymous": false,
      "inputs": [
        {
          "indexed": false,
          "internalType": "uint256",
          "name": "start",
          "type": "uint256"
        },
        {
          "indexed": false,
          "internalType": "uint256",
          "name": "end",
          "type": "uint256"
        },
        {
          "indexed": false,
          "internalType": "address",
          "name": "owner",
          "type": "address"
        }
      ],
      "name": "Reserved",
      "type": "event"
    },
    {
      "anonymous": false,
      "inputs": [
        {
          "indexed": true,
          "internalType": "address",
          "name": "from",
          "type": "address"
        },
        {
          "indexed": true,
          "internalType": "address",
          "name": "to",
          "type": "address"
        },
        {
          "indexed": true,
          "internalType": "uint256",
          "name": "tokenId",
          "type": "uint256"
        }
      ],
      "name": "Transfer",
      "type": "event"
    },
    {
      "inputs": [
        {
          "internalType": "address",
          "name": "to",
          "type": "address"
        },
        {
          "internalType": "uint256",
          "name": "tokenId",
          "type": "uint256"
        }
      ],
      "name": "approve",
      "outputs": [],
      "stateMutability": "nonpayable",
      "type": "function"
    },
    {
      "inputs": [
        {
          "internalType": "address",
          "name": "owner",
          "type": "address"
        }
      ],
      "name": "balanceOf",
      "outputs": [
        {
          "internalType": "uint256",
          "name": "",
          "type": "uint256"
        }
      ],
      "stateMutability": "view",
      "type": "function",
      "constant": true
    },
    {
      "inputs": [
        {
          "internalType": "uint256",
          "name": "tokenId",
          "type": "uint256"
        }
      ],
      "name": "getApproved",
      "outputs": [
        {
          "internalType": "address",
          "name": "",
          "type": "address"
        }
      ],
      "stateMutability": "view",
      "type": "function",
      "constant": true
    },
    {
      "inputs": [
        {
          "internalType": "address",
          "name": "owner",
          "type": "address"
        },
        {
          "internalType": "address",
          "name": "operator",
          "type": "address"
        }
      ],
      "name": "isApprovedForAll",
      "outputs": [
        {
          "internalType": "bool",
          "name": "",
          "type": "bool"
        }
      ],
      "stateMutability": "view",
      "type": "function",
      "constant": true
    },
    {
      "inputs": [],
      "name": "name",
      "outputs": [
        {
          "internalType": "string",
          "name": "",
          "type": "string"
        }
      ],
      "stateMutability": "view",
      "type": "function",
      "constant": true
    },
    {
      "inputs": [
        {
          "internalType": "uint256",
          "name": "tokenId",
          "type": "uint256"
        }
      ],
      "name": "ownerOf",
      "outputs": [
        {
          "internalType": "address",
          "name": "",
          "type": "address"
        }
      ],
      "stateMutability": "view",
      "type": "function",
      "constant": true
    },
    {
      "inputs": [
        {
          "internalType": "address",
          "name": "from",
          "type": "address"
        },
        {
          "internalType": "address",
          "name": "to",
          "type": "address"
        },
        {
          "internalType": "uint256",
          "name": "tokenId",
          "type": "uint256"
        }
      ],
      "name": "safeTransferFrom",
      "outputs": [],
      "stateMutability": "nonpayable",
      "type": "function"
    },
    {
      "inputs": [
        {
          "internalType": "address",
          "name": "from",
          "type": "address"
        },
        {
          "internalType": "address",
          "name": "to",
          "type": "address"
        },
        {
          "internalType": "uint256",
          "name": "tokenId",
          "type": "uint256"
        },
        {
          "internalType": "bytes",
          "name": "_data",
          "type": "bytes"
        }
      ],
      "name": "safeTransferFrom",
      "outputs": [],
      "stateMutability": "nonpayable",
      "type": "function"
    },
    {
      "inputs": [
        {
          "internalType": "address",
          "name": "operator",
          "type": "address"
        },
        {
          "internalType": "bool",
          "name": "approved",
          "type": "bool"
        }
      ],
      "name": "setApprovalForAll",
      "outputs": [],
      "stateMutability": "nonpayable",
      "type": "function"
    },
    {
      "inputs": [
        {
          "internalType": "bytes4",
          "name": "interfaceId",
          "type": "bytes4"
        }
      ],
      "name": "supportsInterface",
      "outputs": [
        {
          "internalType": "bool",
          "name": "",
          "type": "bool"
        }
      ],
      "stateMutability": "view",
      "type": "function",
      "constant": true
    },
    {
      "inputs": [],
      "name": "symbol",
      "outputs": [
        {
          "internalType": "string",
          "name": "",
          "type": "string"
        }
      ],
      "stateMutability": "view",
      "type": "function",
      "constant": true
    },
    {
      "inputs": [
        {
          "internalType": "uint256",
          "name": "tokenId",
          "type": "uint256"
        }
      ],
      "name": "tokenURI",
      "outputs": [
        {
          "internalType": "string",
          "name": "",
          "type": "string"
        }
      ],
      "stateMutability": "view",
      "type": "function",
      "constant": true
    },
    {
      "inputs": [
        {
          "internalType": "address",
          "name": "from",
          "type": "address"
        },
        {
          "internalType": "address",
          "name": "to",
          "type": "address"
        },
        {
          "internalType": "uint256",
          "name": "tokenId",
          "type": "uint256"
        }
      ],
      "name": "transferFrom",
      "outputs": [],
      "stateMutability": "nonpayable",
      "type": "function"
    },
    {
      "inputs": [
        {
          "internalType": "uint256",
          "name": "tokenId",
          "type": "uint256"
        }
      ],
      "name": "getOwner",
      "outputs": [
        {
          "internalType": "address",
          "name": "",
          "type": "address"
        }
      ],
      "stateMutability": "view",
      "type": "function",
      "constant": true
    },
    {
      "inputs": [
        {
          "internalType": "uint256[]",
          "name": "tokenIds",
          "type": "uint256[]"
        }
      ],
      "name": "mintTiles",
      "outputs": [],
      "stateMutability": "nonpayable",
      "type": "function"
    },
    {
      "inputs": [
        {
          "internalType": "uint256",
          "name": "tokenId",
          "type": "uint256"
        }
      ],
      "name": "mintTile",
      "outputs": [],
      "stateMutability": "nonpayable",
      "type": "function"
    },
    {
      "inputs": [
        {
          "internalType": "uint256[]",
          "name": "tokenIds",
          "type": "uint256[]"
        }
      ],
      "name": "mintReserved",
      "outputs": [],
      "stateMutability": "nonpayable",
      "type": "function"
    },
    {
      "inputs": [
        {
          "internalType": "uint256[]",
          "name": "tokenIds",
          "type": "uint256[]"
        },
        {
          "internalType": "bytes[]",
          "name": "colors",
          "type": "bytes[]"
        }
      ],
      "name": "setColorBytesBulk",
      "outputs": [],
      "stateMutability": "nonpayable",
      "type": "function"
    },
    {
      "inputs": [
        {
          "internalType": "uint256",
          "name": "tokenId",
          "type": "uint256"
        },
        {
          "internalType": "bytes",
          "name": "color",
          "type": "bytes"
        }
      ],
      "name": "setColorBytes",
      "outputs": [],
      "stateMutability": "nonpayable",
      "type": "function"
    },
    {
      "inputs": [
        {
          "internalType": "uint256",
          "name": "tokenId",
          "type": "uint256"
        }
      ],
      "name": "exists",
      "outputs": [
        {
          "internalType": "bool",
          "name": "",
          "type": "bool"
        }
      ],
      "stateMutability": "view",
      "type": "function",
      "constant": true
    }
  ],
  "bytecode": "0x60806040523480156200001157600080fd5b50604051620037ca380380620037ca833981810160405281019062000037919062000304565b6040518060400160405280600581526020017f54696c65730000000000000000000000000000000000000000000000000000008152506040518060400160405280600381526020017f54494c00000000000000000000000000000000000000000000000000000000008152508160009080519060200190620000bb929190620001bf565b508060019080519060200190620000d4929190620001bf565b50505033600660006101000a81548173ffffffffffffffffffffffffffffffffffffffff021916908373ffffffffffffffffffffffffffffffffffffffff160217905550611388600781905550806008908051906020019062000139929190620001bf565b506200014c83836200015560201b60201c565b505050620005ba565b8082108015620001665750611b9081105b6200017057600080fd5b8160098190555080600a819055507fe81a03845e66a0e06e96b6f405ce45dce8fd78ec6bd4be0c494e23412d34e5c9828233604051620001b393929190620003a1565b60405180910390a15050565b828054620001cd90620004b1565b90600052602060002090601f016020900481019282620001f157600085556200023d565b82601f106200020c57805160ff19168380011785556200023d565b828001600101855582156200023d579182015b828111156200023c5782518255916020019190600101906200021f565b5b5090506200024c919062000250565b5090565b5b808211156200026b57600081600090555060010162000251565b5090565b600062000286620002808462000407565b620003de565b905082815260208101848484011115620002a557620002a462000580565b5b620002b28482856200047b565b509392505050565b600082601f830112620002d257620002d16200057b565b5b8151620002e48482602086016200026f565b91505092915050565b600081519050620002fe81620005a0565b92915050565b60008060006060848603121562000320576200031f6200058a565b5b60006200033086828701620002ed565b93505060206200034386828701620002ed565b925050604084015167ffffffffffffffff81111562000367576200036662000585565b5b6200037586828701620002ba565b9150509250925092565b6200038a816200043d565b82525050565b6200039b8162000471565b82525050565b6000606082019050620003b8600083018662000390565b620003c7602083018562000390565b620003d660408301846200037f565b949350505050565b6000620003ea620003fd565b9050620003f88282620004e7565b919050565b6000604051905090565b600067ffffffffffffffff8211156200042557620004246200054c565b5b62000430826200058f565b9050602081019050919050565b60006200044a8262000451565b9050919050565b600073ffffffffffffffffffffffffffffffffffffffff82169050919050565b6000819050919050565b60005b838110156200049b5780820151818401526020810190506200047e565b83811115620004ab576000848401525b50505050565b60006002820490506001821680620004ca57607f821691505b60208210811415620004e157620004e06200051d565b5b50919050565b620004f2826200058f565b810181811067ffffffffffffffff821117156200051457620005136200054c565b5b80604052505050565b7f4e487b7100000000000000000000000000000000000000000000000000000000600052602260045260246000fd5b7f4e487b7100000000000000000000000000000000000000000000000000000000600052604160045260246000fd5b600080fd5b600080fd5b600080fd5b600080fd5b6000601f19601f8301169050919050565b620005ab8162000471565b8114620005b757600080fd5b50565b61320080620005ca6000396000f3fe608060405234801561001057600080fd5b506004361061012c5760003560e01c8063719f61f5116100ad578063b88d4fde11610071578063b88d4fde1461033d578063c41a360a14610359578063c87b56dd14610389578063d0bfa9ec146103b9578063e985e9c5146103d55761012c565b8063719f61f5146102af578063720dce6a146102cb578063831ec8d5146102e757806395d89b4114610303578063a22cb465146103215761012c565b80632ce14468116100f45780632ce14468146101e757806342842e0e146102035780634f558e791461021f5780636352211e1461024f57806370a082311461027f5761012c565b806301ffc9a71461013157806306fdde0314610161578063081812fc1461017f578063095ea7b3146101af57806323b872dd146101cb575b600080fd5b61014b600480360381019061014691906120c0565b610405565b6040516101589190612574565b60405180910390f35b6101696104e7565b604051610176919061258f565b60405180910390f35b6101996004803603810190610194919061211a565b610579565b6040516101a6919061250d565b60405180910390f35b6101c960048036038101906101c49190611fbf565b6105fe565b005b6101e560048036038101906101e09190611ea9565b610716565b005b61020160048036038101906101fc919061211a565b610776565b005b61021d60048036038101906102189190611ea9565b6107c4565b005b6102396004803603810190610234919061211a565b6107e4565b6040516102469190612574565b60405180910390f35b6102696004803603810190610264919061211a565b610808565b604051610276919061250d565b60405180910390f35b61029960048036038101906102949190611e3c565b6108ba565b6040516102a691906127f1565b60405180910390f35b6102c960048036038101906102c49190612048565b610972565b005b6102e560048036038101906102e09190612147565b610a25565b005b61030160048036038101906102fc9190611fff565b610b3a565b005b61030b610c07565b604051610318919061258f565b60405180910390f35b61033b60048036038101906103369190611f7f565b610c99565b005b61035760048036038101906103529190611efc565b610e1a565b005b610373600480360381019061036e919061211a565b610e7c565b604051610380919061250d565b60405180910390f35b6103a3600480360381019061039e919061211a565b610eb8565b6040516103b0919061258f565b60405180910390f35b6103d360048036038101906103ce9190611fff565b610f5f565b005b6103ef60048036038101906103ea9190611e69565b611010565b6040516103fc9190612574565b60405180910390f35b60007f80ac58cd000000000000000000000000000000000000000000000000000000007bffffffffffffffffffffffffffffffffffffffffffffffffffffffff1916827bffffffffffffffffffffffffffffffffffffffffffffffffffffffff191614806104d057507f5b5e139f000000000000000000000000000000000000000000000000000000007bffffffffffffffffffffffffffffffffffffffffffffffffffffffff1916827bffffffffffffffffffffffffffffffffffffffffffffffffffffffff1916145b806104e057506104df826110a4565b5b9050919050565b6060600080546104f690612aac565b80601f016020809104026020016040519081016040528092919081815260200182805461052290612aac565b801561056f5780601f106105445761010080835404028352916020019161056f565b820191906000526020600020905b81548152906001019060200180831161055257829003601f168201915b5050505050905090565b60006105848261110e565b6105c3576040517f08c379a00000000000000000000000000000000000000000000000000000000081526004016105ba90612751565b60405180910390fd5b6004600083815260200190815260200160002060009054906101000a900473ffffffffffffffffffffffffffffffffffffffff169050919050565b600061060982610808565b90508073ffffffffffffffffffffffffffffffffffffffff168373ffffffffffffffffffffffffffffffffffffffff16141561067a576040517f08c379a0000000000000000000000000000000000000000000000000000000008152600401610671906127b1565b60405180910390fd5b8073ffffffffffffffffffffffffffffffffffffffff1661069961117a565b73ffffffffffffffffffffffffffffffffffffffff1614806106c857506106c7816106c261117a565b611010565b5b610707576040517f08c379a00000000000000000000000000000000000000000000000000000000081526004016106fe906126d1565b60405180910390fd5b6107118383611182565b505050565b61072761072161117a565b8261123b565b610766576040517f08c379a000000000000000000000000000000000000000000000000000000000815260040161075d906127d1565b60405180910390fd5b610771838383611319565b505050565b6064610781336108ba565b1061078b57600080fd5b61079481611575565b61079d57600080fd5b6009548110806107ae5750600a5481115b6107b757600080fd5b6107c13382611583565b50565b6107df83838360405180602001604052806000815250610e1a565b505050565b60006107ef82611575565b6107f857600080fd5b6108018261110e565b9050919050565b6000806002600084815260200190815260200160002060009054906101000a900473ffffffffffffffffffffffffffffffffffffffff169050600073ffffffffffffffffffffffffffffffffffffffff168173ffffffffffffffffffffffffffffffffffffffff1614156108b1576040517f08c379a00000000000000000000000000000000000000000000000000000000081526004016108a890612711565b60405180910390fd5b80915050919050565b60008073ffffffffffffffffffffffffffffffffffffffff168273ffffffffffffffffffffffffffffffffffffffff16141561092b576040517f08c379a0000000000000000000000000000000000000000000000000000000008152600401610922906126f1565b60405180910390fd5b600360008373ffffffffffffffffffffffffffffffffffffffff1673ffffffffffffffffffffffffffffffffffffffff168152602001908152602001600020549050919050565b60008251118015610984575080518251145b6109c3576040517f08c379a00000000000000000000000000000000000000000000000000000000081526004016109ba906125b1565b60405180910390fd5b60005b8251811015610a2057610a0d8382815181106109e5576109e4612c16565b5b6020026020010151838381518110610a00576109ff612c16565b5b6020026020010151610a25565b8080610a1890612b0f565b9150506109c6565b505050565b610a2e82611575565b610a6d576040517f08c379a0000000000000000000000000000000000000000000000000000000008152600401610a64906126b1565b60405180910390fd5b610a7782336115a1565b610ab6576040517f08c379a0000000000000000000000000000000000000000000000000000000008152600401610aad906125f1565b60405180910390fd5b600754815110610afb576040517f08c379a0000000000000000000000000000000000000000000000000000000008152600401610af2906125d1565b60405180910390fd5b7ff9785b36c26c205a690a0a7bfb3acb423155645c2cd9c2e27e913375f2b596a6823383604051610b2e9392919061280c565b60405180910390a15050565b600660009054906101000a900473ffffffffffffffffffffffffffffffffffffffff1673ffffffffffffffffffffffffffffffffffffffff163373ffffffffffffffffffffffffffffffffffffffff1614610b9457600080fd5b60005b8151811015610c0357610bc3828281518110610bb657610bb5612c16565b5b6020026020010151611575565b610bcc57600080fd5b610bf033838381518110610be357610be2612c16565b5b6020026020010151611583565b8080610bfb90612b0f565b915050610b97565b5050565b606060018054610c1690612aac565b80601f0160208091040260200160405190810160405280929190818152602001828054610c4290612aac565b8015610c8f5780601f10610c6457610100808354040283529160200191610c8f565b820191906000526020600020905b815481529060010190602001808311610c7257829003601f168201915b5050505050905090565b610ca161117a565b73ffffffffffffffffffffffffffffffffffffffff168273ffffffffffffffffffffffffffffffffffffffff161415610d0f576040517f08c379a0000000000000000000000000000000000000000000000000000000008152600401610d0690612671565b60405180910390fd5b8060056000610d1c61117a565b73ffffffffffffffffffffffffffffffffffffffff1673ffffffffffffffffffffffffffffffffffffffff16815260200190815260200160002060008473ffffffffffffffffffffffffffffffffffffffff1673ffffffffffffffffffffffffffffffffffffffff16815260200190815260200160002060006101000a81548160ff0219169083151502179055508173ffffffffffffffffffffffffffffffffffffffff16610dc961117a565b73ffffffffffffffffffffffffffffffffffffffff167f17307eab39ab6107e8899845ad3d59bd9653f200f220920489ca2b5937696c3183604051610e0e9190612574565b60405180910390a35050565b610e2b610e2561117a565b8361123b565b610e6a576040517f08c379a0000000000000000000000000000000000000000000000000000000008152600401610e61906127d1565b60405180910390fd5b610e76848484846115e2565b50505050565b6000610e8782611575565b610e9057600080fd5b610e99826107e4565b15610eae57610ea782610808565b9050610eb3565b600090505b919050565b6060610ec38261110e565b610f02576040517f08c379a0000000000000000000000000000000000000000000000000000000008152600401610ef990612791565b60405180910390fd5b6000610f0c61163e565b90506000815111610f2c5760405180602001604052806000815250610f57565b80610f36846116d0565b604051602001610f479291906124e9565b6040516020818303038152906040525b915050919050565b60008151118015610f7257506014815111155b610f7b57600080fd5b60648151610f88336108ba565b610f92919061293b565b1115610f9d57600080fd5b60005b815181101561100c57610fcc828281518110610fbf57610fbe612c16565b5b6020026020010151611575565b610fd557600080fd5b610ff933838381518110610fec57610feb612c16565b5b6020026020010151611583565b808061100490612b0f565b915050610fa0565b5050565b6000600560008473ffffffffffffffffffffffffffffffffffffffff1673ffffffffffffffffffffffffffffffffffffffff16815260200190815260200160002060008373ffffffffffffffffffffffffffffffffffffffff1673ffffffffffffffffffffffffffffffffffffffff16815260200190815260200160002060009054906101000a900460ff16905092915050565b60007f01ffc9a7000000000000000000000000000000000000000000000000000000007bffffffffffffffffffffffffffffffffffffffffffffffffffffffff1916827bffffffffffffffffffffffffffffffffffffffffffffffffffffffff1916149050919050565b60008073ffffffffffffffffffffffffffffffffffffffff166002600084815260200190815260200160002060009054906101000a900473ffffffffffffffffffffffffffffffffffffffff1673ffffffffffffffffffffffffffffffffffffffff1614159050919050565b600033905090565b816004600083815260200190815260200160002060006101000a81548173ffffffffffffffffffffffffffffffffffffffff021916908373ffffffffffffffffffffffffffffffffffffffff160217905550808273ffffffffffffffffffffffffffffffffffffffff166111f583610808565b73ffffffffffffffffffffffffffffffffffffffff167f8c5be1e5ebec7d5bd14f71427d1e84f3dd0314c0f7b2291e5b200ac8c7c3b92560405160405180910390a45050565b60006112468261110e565b611285576040517f08c379a000000000000000000000000000000000000000000000000000000000815260040161127c90612691565b60405180910390fd5b600061129083610808565b90508073ffffffffffffffffffffffffffffffffffffffff168473ffffffffffffffffffffffffffffffffffffffff1614806112ff57508373ffffffffffffffffffffffffffffffffffffffff166112e784610579565b73ffffffffffffffffffffffffffffffffffffffff16145b80611310575061130f8185611010565b5b91505092915050565b8273ffffffffffffffffffffffffffffffffffffffff1661133982610808565b73ffffffffffffffffffffffffffffffffffffffff161461138f576040517f08c379a000000000000000000000000000000000000000000000000000000000815260040161138690612771565b60405180910390fd5b600073ffffffffffffffffffffffffffffffffffffffff168273ffffffffffffffffffffffffffffffffffffffff1614156113ff576040517f08c379a00000000000000000000000000000000000000000000000000000000081526004016113f690612651565b60405180910390fd5b61140a838383611831565b611415600082611182565b6001600360008573ffffffffffffffffffffffffffffffffffffffff1673ffffffffffffffffffffffffffffffffffffffff168152602001908152602001600020600082825461146591906129c2565b925050819055506001600360008473ffffffffffffffffffffffffffffffffffffffff1673ffffffffffffffffffffffffffffffffffffffff16815260200190815260200160002060008282546114bc919061293b565b92505081905550816002600083815260200190815260200160002060006101000a81548173ffffffffffffffffffffffffffffffffffffffff021916908373ffffffffffffffffffffffffffffffffffffffff160217905550808273ffffffffffffffffffffffffffffffffffffffff168473ffffffffffffffffffffffffffffffffffffffff167fddf252ad1be2c89b69c2b068fc378daa952ba7f163c4a11628f55a4df523b3ef60405160405180910390a4505050565b6000611b9082109050919050565b61159d828260405180602001604052806000815250611836565b5050565b60008173ffffffffffffffffffffffffffffffffffffffff166115c384610808565b73ffffffffffffffffffffffffffffffffffffffff1614905092915050565b6115ed848484611319565b6115f984848484611891565b611638576040517f08c379a000000000000000000000000000000000000000000000000000000000815260040161162f90612611565b60405180910390fd5b50505050565b60606008805461164d90612aac565b80601f016020809104026020016040519081016040528092919081815260200182805461167990612aac565b80156116c65780601f1061169b576101008083540402835291602001916116c6565b820191906000526020600020905b8154815290600101906020018083116116a957829003601f168201915b5050505050905090565b60606000821415611718576040518060400160405280600181526020017f3000000000000000000000000000000000000000000000000000000000000000815250905061182c565b600082905060005b6000821461174a57808061173390612b0f565b915050600a826117439190612991565b9150611720565b60008167ffffffffffffffff81111561176657611765612c45565b5b6040519080825280601f01601f1916602001820160405280156117985781602001600182028036833780820191505090505b5090505b60008514611825576001826117b191906129c2565b9150600a856117c09190612b58565b60306117cc919061293b565b60f81b8183815181106117e2576117e1612c16565b5b60200101907effffffffffffffffffffffffffffffffffffffffffffffffffffffffffffff1916908160001a905350600a8561181e9190612991565b945061179c565b8093505050505b919050565b505050565b6118408383611a28565b61184d6000848484611891565b61188c576040517f08c379a000000000000000000000000000000000000000000000000000000000815260040161188390612611565b60405180910390fd5b505050565b60006118b28473ffffffffffffffffffffffffffffffffffffffff16611bf6565b15611a1b578373ffffffffffffffffffffffffffffffffffffffff1663150b7a026118db61117a565b8786866040518563ffffffff1660e01b81526004016118fd9493929190612528565b602060405180830381600087803b15801561191757600080fd5b505af192505050801561194857506040513d601f19601f8201168201806040525081019061194591906120ed565b60015b6119cb573d8060008114611978576040519150601f19603f3d011682016040523d82523d6000602084013e61197d565b606091505b506000815114156119c3576040517f08c379a00000000000000000000000000000000000000000000000000000000081526004016119ba90612611565b60405180910390fd5b805181602001fd5b63150b7a0260e01b7bffffffffffffffffffffffffffffffffffffffffffffffffffffffff1916817bffffffffffffffffffffffffffffffffffffffffffffffffffffffff191614915050611a20565b600190505b949350505050565b600073ffffffffffffffffffffffffffffffffffffffff168273ffffffffffffffffffffffffffffffffffffffff161415611a98576040517f08c379a0000000000000000000000000000000000000000000000000000000008152600401611a8f90612731565b60405180910390fd5b611aa18161110e565b15611ae1576040517f08c379a0000000000000000000000000000000000000000000000000000000008152600401611ad890612631565b60405180910390fd5b611aed60008383611831565b6001600360008473ffffffffffffffffffffffffffffffffffffffff1673ffffffffffffffffffffffffffffffffffffffff1681526020019081526020016000206000828254611b3d919061293b565b92505081905550816002600083815260200190815260200160002060006101000a81548173ffffffffffffffffffffffffffffffffffffffff021916908373ffffffffffffffffffffffffffffffffffffffff160217905550808273ffffffffffffffffffffffffffffffffffffffff16600073ffffffffffffffffffffffffffffffffffffffff167fddf252ad1be2c89b69c2b068fc378daa952ba7f163c4a11628f55a4df523b3ef60405160405180910390a45050565b600080823b905060008111915050919050565b6000611c1c611c178461286f565b61284a565b90508083825260208201905082856020860282011115611c3f57611c3e612c79565b5b60005b85811015611c8d57813567ffffffffffffffff811115611c6557611c64612c74565b5b808601611c728982611df9565b85526020850194506020840193505050600181019050611c42565b5050509392505050565b6000611caa611ca58461289b565b61284a565b90508083825260208201905082856020860282011115611ccd57611ccc612c79565b5b60005b85811015611cfd5781611ce38882611e27565b845260208401935060208301925050600181019050611cd0565b5050509392505050565b6000611d1a611d15846128c7565b61284a565b905082815260208101848484011115611d3657611d35612c7e565b5b611d41848285612a6a565b509392505050565b600081359050611d588161316e565b92915050565b600082601f830112611d7357611d72612c74565b5b8135611d83848260208601611c09565b91505092915050565b600082601f830112611da157611da0612c74565b5b8135611db1848260208601611c97565b91505092915050565b600081359050611dc981613185565b92915050565b600081359050611dde8161319c565b92915050565b600081519050611df38161319c565b92915050565b600082601f830112611e0e57611e0d612c74565b5b8135611e1e848260208601611d07565b91505092915050565b600081359050611e36816131b3565b92915050565b600060208284031215611e5257611e51612c88565b5b6000611e6084828501611d49565b91505092915050565b60008060408385031215611e8057611e7f612c88565b5b6000611e8e85828601611d49565b9250506020611e9f85828601611d49565b9150509250929050565b600080600060608486031215611ec257611ec1612c88565b5b6000611ed086828701611d49565b9350506020611ee186828701611d49565b9250506040611ef286828701611e27565b9150509250925092565b60008060008060808587031215611f1657611f15612c88565b5b6000611f2487828801611d49565b9450506020611f3587828801611d49565b9350506040611f4687828801611e27565b925050606085013567ffffffffffffffff811115611f6757611f66612c83565b5b611f7387828801611df9565b91505092959194509250565b60008060408385031215611f9657611f95612c88565b5b6000611fa485828601611d49565b9250506020611fb585828601611dba565b9150509250929050565b60008060408385031215611fd657611fd5612c88565b5b6000611fe485828601611d49565b9250506020611ff585828601611e27565b9150509250929050565b60006020828403121561201557612014612c88565b5b600082013567ffffffffffffffff81111561203357612032612c83565b5b61203f84828501611d8c565b91505092915050565b6000806040838503121561205f5761205e612c88565b5b600083013567ffffffffffffffff81111561207d5761207c612c83565b5b61208985828601611d8c565b925050602083013567ffffffffffffffff8111156120aa576120a9612c83565b5b6120b685828601611d5e565b9150509250929050565b6000602082840312156120d6576120d5612c88565b5b60006120e484828501611dcf565b91505092915050565b60006020828403121561210357612102612c88565b5b600061211184828501611de4565b91505092915050565b6000602082840312156121305761212f612c88565b5b600061213e84828501611e27565b91505092915050565b6000806040838503121561215e5761215d612c88565b5b600061216c85828601611e27565b925050602083013567ffffffffffffffff81111561218d5761218c612c83565b5b61219985828601611df9565b9150509250929050565b6121ac816129f6565b82525050565b6121bb81612a08565b82525050565b60006121cc826128f8565b6121d6818561290e565b93506121e6818560208601612a79565b6121ef81612c8d565b840191505092915050565b600061220582612903565b61220f818561291f565b935061221f818560208601612a79565b61222881612c8d565b840191505092915050565b600061223e82612903565b6122488185612930565b9350612258818560208601612a79565b80840191505092915050565b600061227160288361291f565b915061227c82612c9e565b604082019050919050565b6000612294602e8361291f565b915061229f82612ced565b604082019050919050565b60006122b7601d8361291f565b91506122c282612d3c565b602082019050919050565b60006122da60328361291f565b91506122e582612d65565b604082019050919050565b60006122fd601c8361291f565b915061230882612db4565b602082019050919050565b600061232060248361291f565b915061232b82612ddd565b604082019050919050565b600061234360198361291f565b915061234e82612e2c565b602082019050919050565b6000612366602c8361291f565b915061237182612e55565b604082019050919050565b600061238960128361291f565b915061239482612ea4565b602082019050919050565b60006123ac60388361291f565b91506123b782612ecd565b604082019050919050565b60006123cf602a8361291f565b91506123da82612f1c565b604082019050919050565b60006123f260298361291f565b91506123fd82612f6b565b604082019050919050565b600061241560208361291f565b915061242082612fba565b602082019050919050565b6000612438602c8361291f565b915061244382612fe3565b604082019050919050565b600061245b60298361291f565b915061246682613032565b604082019050919050565b600061247e602f8361291f565b915061248982613081565b604082019050919050565b60006124a160218361291f565b91506124ac826130d0565b604082019050919050565b60006124c460318361291f565b91506124cf8261311f565b604082019050919050565b6124e381612a60565b82525050565b60006124f58285612233565b91506125018284612233565b91508190509392505050565b600060208201905061252260008301846121a3565b92915050565b600060808201905061253d60008301876121a3565b61254a60208301866121a3565b61255760408301856124da565b818103606083015261256981846121c1565b905095945050505050565b600060208201905061258960008301846121b2565b92915050565b600060208201905081810360008301526125a981846121fa565b905092915050565b600060208201905081810360008301526125ca81612264565b9050919050565b600060208201905081810360008301526125ea81612287565b9050919050565b6000602082019050818103600083015261260a816122aa565b9050919050565b6000602082019050818103600083015261262a816122cd565b9050919050565b6000602082019050818103600083015261264a816122f0565b9050919050565b6000602082019050818103600083015261266a81612313565b9050919050565b6000602082019050818103600083015261268a81612336565b9050919050565b600060208201905081810360008301526126aa81612359565b9050919050565b600060208201905081810360008301526126ca8161237c565b9050919050565b600060208201905081810360008301526126ea8161239f565b9050919050565b6000602082019050818103600083015261270a816123c2565b9050919050565b6000602082019050818103600083015261272a816123e5565b9050919050565b6000602082019050818103600083015261274a81612408565b9050919050565b6000602082019050818103600083015261276a8161242b565b9050919050565b6000602082019050818103600083015261278a8161244e565b9050919050565b600060208201905081810360008301526127aa81612471565b9050919050565b600060208201905081810360008301526127ca81612494565b9050919050565b600060208201905081810360008301526127ea816124b7565b9050919050565b600060208201905061280660008301846124da565b92915050565b600060608201905061282160008301866124da565b61282e60208301856121a3565b818103604083015261284081846121c1565b9050949350505050565b6000612854612865565b90506128608282612ade565b919050565b6000604051905090565b600067ffffffffffffffff82111561288a57612889612c45565b5b602082029050602081019050919050565b600067ffffffffffffffff8211156128b6576128b5612c45565b5b602082029050602081019050919050565b600067ffffffffffffffff8211156128e2576128e1612c45565b5b6128eb82612c8d565b9050602081019050919050565b600081519050919050565b600081519050919050565b600082825260208201905092915050565b600082825260208201905092915050565b600081905092915050565b600061294682612a60565b915061295183612a60565b9250827fffffffffffffffffffffffffffffffffffffffffffffffffffffffffffffffff0382111561298657612985612b89565b5b828201905092915050565b600061299c82612a60565b91506129a783612a60565b9250826129b7576129b6612bb8565b5b828204905092915050565b60006129cd82612a60565b91506129d883612a60565b9250828210156129eb576129ea612b89565b5b828203905092915050565b6000612a0182612a40565b9050919050565b60008115159050919050565b60007fffffffff0000000000000000000000000000000000000000000000000000000082169050919050565b600073ffffffffffffffffffffffffffffffffffffffff82169050919050565b6000819050919050565b82818337600083830152505050565b60005b83811015612a97578082015181840152602081019050612a7c565b83811115612aa6576000848401525b50505050565b60006002820490506001821680612ac457607f821691505b60208210811415612ad857612ad7612be7565b5b50919050565b612ae782612c8d565b810181811067ffffffffffffffff82111715612b0657612b05612c45565b5b80604052505050565b6000612b1a82612a60565b91507fffffffffffffffffffffffffffffffffffffffffffffffffffffffffffffffff821415612b4d57612b4c612b89565b5b600182019050919050565b6000612b6382612a60565b9150612b6e83612a60565b925082612b7e57612b7d612bb8565b5b828206905092915050565b7f4e487b7100000000000000000000000000000000000000000000000000000000600052601160045260246000fd5b7f4e487b7100000000000000000000000000000000000000000000000000000000600052601260045260246000fd5b7f4e487b7100000000000000000000000000000000000000000000000000000000600052602260045260246000fd5b7f4e487b7100000000000000000000000000000000000000000000000000000000600052603260045260246000fd5b7f4e487b7100000000000000000000000000000000000000000000000000000000600052604160045260246000fd5b600080fd5b600080fd5b600080fd5b600080fd5b600080fd5b6000601f19601f8301169050919050565b7f746f6b656e496473206c656e677468206d757374206d6174636820636f6c6f7260008201527f73206c656e677468000000000000000000000000000000000000000000000000602082015250565b7f436f6c6f7220617272617920697320746f6f206269672c20706c65617365207560008201527f736520313678313620696d616765000000000000000000000000000000000000602082015250565b7f53656e646572206973206e6f742074686520746f6b656e206f776e6572000000600082015250565b7f4552433732313a207472616e7366657220746f206e6f6e20455243373231526560008201527f63656976657220696d706c656d656e7465720000000000000000000000000000602082015250565b7f4552433732313a20746f6b656e20616c7265616479206d696e74656400000000600082015250565b7f4552433732313a207472616e7366657220746f20746865207a65726f2061646460008201527f7265737300000000000000000000000000000000000000000000000000000000602082015250565b7f4552433732313a20617070726f766520746f2063616c6c657200000000000000600082015250565b7f4552433732313a206f70657261746f7220717565727920666f72206e6f6e657860008201527f697374656e7420746f6b656e0000000000000000000000000000000000000000602082015250565b7f546f6b656e496420697320696e76616c69640000000000000000000000000000600082015250565b7f4552433732313a20617070726f76652063616c6c6572206973206e6f74206f7760008201527f6e6572206e6f7220617070726f76656420666f7220616c6c0000000000000000602082015250565b7f4552433732313a2062616c616e636520717565727920666f7220746865207a6560008201527f726f206164647265737300000000000000000000000000000000000000000000602082015250565b7f4552433732313a206f776e657220717565727920666f72206e6f6e657869737460008201527f656e7420746f6b656e0000000000000000000000000000000000000000000000602082015250565b7f4552433732313a206d696e7420746f20746865207a65726f2061646472657373600082015250565b7f4552433732313a20617070726f76656420717565727920666f72206e6f6e657860008201527f697374656e7420746f6b656e0000000000000000000000000000000000000000602082015250565b7f4552433732313a207472616e73666572206f6620746f6b656e2074686174206960008201527f73206e6f74206f776e0000000000000000000000000000000000000000000000602082015250565b7f4552433732314d657461646174613a2055524920717565727920666f72206e6f60008201527f6e6578697374656e7420746f6b656e0000000000000000000000000000000000602082015250565b7f4552433732313a20617070726f76616c20746f2063757272656e74206f776e6560008201527f7200000000000000000000000000000000000000000000000000000000000000602082015250565b7f4552433732313a207472616e736665722063616c6c6572206973206e6f74206f60008201527f776e6572206e6f7220617070726f766564000000000000000000000000000000602082015250565b613177816129f6565b811461318257600080fd5b50565b61318e81612a08565b811461319957600080fd5b50565b6131a581612a14565b81146131b057600080fd5b50565b6131bc81612a60565b81146131c757600080fd5b5056fea2646970667358221220a44e0d5f2e5ba81905b1d3bf0ce7e9c384328754d884a00a80c530868ae6031664736f6c63430008070033",
  "immutableReferences": {},
  "source": "pragma solidity ^0.8.4;\r\n\r\nimport \"@openzeppelin/contracts/token/ERC721/ERC721.sol\";\r\n\r\n/**\r\n  @dev ERC721, Non-Fungible Token, implementation.  There are 7056\r\n    available NFTs.  Includes functionality to mint new tiles as well\r\n    as to update the color of the tile.\r\n */\r\ncontract CryptoCanvas is ERC721 {\r\n    address admin;\r\n    uint maxColorSize;\r\n    string uri;\r\n    uint reservedStart;\r\n    uint reservedEnd;\r\n\r\n    /**\r\n     * @dev Emitted when `owner` changes the `tokenId` color to `updatedColor`.\r\n     */ \r\n    event ColorBytesUpdated(uint tokenId, address owner, bytes updatedColor);\r\n\r\n    /**\r\n     * @dev Emitted when a tile is reserved on initialization\r\n     */ \r\n    event Reserved(uint start, uint end, address owner);\r\n\r\n    constructor(uint start, uint end, string memory uriIn) ERC721(\"Tiles\", \"TIL\") {\r\n        admin = msg.sender;\r\n        maxColorSize = 5000;\r\n        uri = uriIn;\r\n        _reserveTiles(start, end);\r\n        // _setInitialTiles(tokenIds); //Set initial tiles\r\n    }\r\n    /**\r\n     * @dev Reserves an initial set of tiles to be minted later\r\n     */\r\n     function _reserveTiles(uint start, uint end) private {\r\n        require(start < end && end < 7056);\r\n        reservedStart = start;\r\n        reservedEnd = end;\r\n        emit Reserved(start, end, msg.sender);\r\n     }\r\n\r\n    // /**\r\n    //  * @dev Reserves an initial set of tiles to be minted later\r\n    //  */\r\n    //  function _reserveTiles(uint[] memory tokenIds, address[] memory addresses) private {\r\n    //      require(tokenIds.length == addresses.length);\r\n    //     for (uint i = 0; i < tokenIds.length; i++) {\r\n    //         require(_isValidToken(tokenIds[i]));\r\n    //         reserved[tokenIds[i]] = addresses[i];\r\n    //         emit Reserved(tokenIds[i], addresses[i]);\r\n    //     }\r\n\r\n    //  }\r\n\r\n    /**\r\n     * @dev Mints the initial set of tiles on contract creation.\r\n     */\r\n    // function _setInitialTiles(uint[] memory tokenIds) private {\r\n    //     // require(tokenIds.length > 0 && msg.sender == admin);\r\n    //     for (uint i = 0; i < tokenIds.length; i++) {\r\n    //         require(_isValidToken(tokenIds[i]));\r\n    //         _safeMint(msg.sender, tokenIds[i]);\r\n    //     }\r\n    // }\r\n\r\n    /**\r\n     * @dev Returns the owner of the tile, or the empty address if no\r\n     * owner exists \r\n     */\r\n    function getOwner(uint tokenId) external view returns (address) {\r\n        require(_isValidToken(tokenId));\r\n\r\n        if (exists(tokenId)) {\r\n            return ownerOf(tokenId);\r\n        } else {\r\n            return address(0);\r\n        }\r\n    }\r\n\r\n    /**\r\n     * @dev Mints new tiles for all `tokenIds` if it doesn't already exist.\r\n     * Emits a {Transfer} event.\r\n     */\r\n    function mintTiles(uint[] memory tokenIds) external {\r\n        require(tokenIds.length > 0 && tokenIds.length <= 20);\r\n        require(balanceOf(msg.sender) + tokenIds.length <= 100);\r\n        for (uint i = 0; i < tokenIds.length; i++) {\r\n            require(_isValidToken(tokenIds[i]));\r\n            _safeMint(msg.sender, tokenIds[i]);\r\n        }\r\n    }\r\n\r\n    /**\r\n     * @dev Mints new tile for `tokenId` if it doesn't already exist.\r\n     * Emits a {Transfer} event.\r\n     */\r\n    function mintTile(uint tokenId) external {\r\n        require(balanceOf(msg.sender) < 100);\r\n        require(_isValidToken(tokenId));\r\n        require(tokenId < reservedStart || tokenId > reservedEnd);\r\n        _safeMint(msg.sender, tokenId);\r\n    }\r\n\r\n    function mintReserved(uint[] memory tokenIds) external {\r\n        require(msg.sender == admin);\r\n        for (uint i = 0; i < tokenIds.length; i++) {\r\n            require(_isValidToken(tokenIds[i]));\r\n            _safeMint(msg.sender, tokenIds[i]);\r\n        }\r\n\r\n    }\r\n\r\n    /**\r\n     * @dev Overriding URI from {ERC721-_baseURI}.  Used to display the NFT metadata.\r\n     */\r\n    function _baseURI() override internal view returns (string memory) {\r\n        return uri;\r\n    }\r\n\r\n    /**\r\n     * @dev Sets the color for all `tokenIds`.  `colors` will be updated for `tokenIds` with the same index.\r\n     * Setting the color is actually just emitting an event.\r\n     * For example tokenIds=[10,50] and colors=[x,y] would emit events \r\n     * ColorBytesUpdated(10, <msg.sender>, x) and ColorBytesUpdated(50, <msg.sender>, y)\r\n     *\r\n     * Requires tokenIds and colors to be the same length.\r\n     */\r\n    function setColorBytesBulk(uint[] memory tokenIds, bytes[] memory colors) external {\r\n        require(tokenIds.length > 0 && tokenIds.length == colors.length, \"tokenIds length must match colors length\");\r\n        for (uint i = 0; i < tokenIds.length; i++) {\r\n            setColorBytes(tokenIds[i], colors[i]);\r\n        }\r\n    }\r\n\r\n    /**\r\n     * @dev Sets the `color` for `tokenId`\r\n     * Setting the color is actually just emitting an event.\r\n     * Does a sanity check to ensure people aren't uploading full size images or other large data.\r\n     * Full validation of the color byte array is handled off chain to ensure it is a png, jpg, or gif.\r\n     *\r\n     * Emits a {ColorBytesUpdated} event\r\n     */\r\n    function setColorBytes(uint tokenId, bytes memory color) public {\r\n        require(_isValidToken(tokenId), \"TokenId is invalid\");\r\n        require(_isOwner(tokenId, msg.sender), \"Sender is not the token owner\");\r\n\r\n        require(color.length < maxColorSize, \"Color array is too big, please use 16x16 image\");\r\n\r\n        emit ColorBytesUpdated(tokenId, msg.sender, color);\r\n    }\r\n\r\n\r\n    /**\r\n     * @dev Check if `tokenId` exists.\r\n     */\r\n    function exists(uint tokenId) public view returns (bool) {\r\n        require(_isValidToken(tokenId));\r\n\r\n        return _exists(tokenId);\r\n    }\r\n\r\n    /**\r\n     * @dev Tokens 0 - 7055 are valid\r\n     */\r\n    function _isValidToken(uint tokenId) private pure returns (bool) {\r\n        return tokenId < 7056;\r\n    }\r\n\r\n    function _isOwner(uint tokenId, address addr) private view returns (bool){\r\n        return ownerOf(tokenId) == addr;\r\n    }\r\n\r\n}",
  "sourcePath": "C:/Users/Zach/IdeaProjects/canvas-contracts/contracts/CryptoCanvas.sol",
  "compiler": {
    "name": "solc",
    "version": "0.8.7+commit.e28d00a7.Emscripten.clang"
  },
  "schemaVersion": "3.4.1",
  "updatedAt": "2021-08-29T18:23:36.277Z",
  "networkType": "ethereum",
  "devdoc": {
    "details": "ERC721, Non-Fungible Token, implementation.  There are 7056 available NFTs.  Includes functionality to mint new tiles as well as to update the color of the tile.",
    "events": {
      "ColorBytesUpdated(uint256,address,bytes)": {
        "details": "Emitted when `owner` changes the `tokenId` color to `updatedColor`."
      },
      "Reserved(uint256,uint256,address)": {
        "details": "Emitted when a tile is reserved on initialization"
      }
    },
    "kind": "dev",
    "methods": {
      "approve(address,uint256)": {
        "details": "See {IERC721-approve}."
      },
      "balanceOf(address)": {
        "details": "See {IERC721-balanceOf}."
      },
      "exists(uint256)": {
        "details": "Check if `tokenId` exists."
      },
      "getApproved(uint256)": {
        "details": "See {IERC721-getApproved}."
      },
      "getOwner(uint256)": {
        "details": "Returns the owner of the tile, or the empty address if no owner exists "
      },
      "isApprovedForAll(address,address)": {
        "details": "See {IERC721-isApprovedForAll}."
      },
      "mintTile(uint256)": {
        "details": "Mints new tile for `tokenId` if it doesn't already exist. Emits a {Transfer} event."
      },
      "mintTiles(uint256[])": {
        "details": "Mints new tiles for all `tokenIds` if it doesn't already exist. Emits a {Transfer} event."
      },
      "name()": {
        "details": "See {IERC721Metadata-name}."
      },
      "ownerOf(uint256)": {
        "details": "See {IERC721-ownerOf}."
      },
      "safeTransferFrom(address,address,uint256)": {
        "details": "See {IERC721-safeTransferFrom}."
      },
      "safeTransferFrom(address,address,uint256,bytes)": {
        "details": "See {IERC721-safeTransferFrom}."
      },
      "setApprovalForAll(address,bool)": {
        "details": "See {IERC721-setApprovalForAll}."
      },
      "setColorBytes(uint256,bytes)": {
        "details": "Sets the `color` for `tokenId` Setting the color is actually just emitting an event. Does a sanity check to ensure people aren't uploading full size images or other large data. Full validation of the color byte array is handled off chain to ensure it is a png, jpg, or gif. Emits a {ColorBytesUpdated} event"
      },
      "setColorBytesBulk(uint256[],bytes[])": {
        "details": "Sets the color for all `tokenIds`.  `colors` will be updated for `tokenIds` with the same index. Setting the color is actually just emitting an event. For example tokenIds=[10,50] and colors=[x,y] would emit events  ColorBytesUpdated(10, <msg.sender>, x) and ColorBytesUpdated(50, <msg.sender>, y) Requires tokenIds and colors to be the same length."
      },
      "supportsInterface(bytes4)": {
        "details": "See {IERC165-supportsInterface}."
      },
      "symbol()": {
        "details": "See {IERC721Metadata-symbol}."
      },
      "tokenURI(uint256)": {
        "details": "See {IERC721Metadata-tokenURI}."
      },
      "transferFrom(address,address,uint256)": {
        "details": "See {IERC721-transferFrom}."
      }
    },
    "version": 1
  },
  "userdoc": {
    "kind": "user",
    "methods": {},
    "version": 1
  }
}