{
  "contractName": "CryptoCanvas",
  "abi": [
    {
      "inputs": [
        {
          "internalType": "uint256",
          "name": "_tokenCount",
          "type": "uint256"
        },
        {
          "internalType": "string",
          "name": "_uri",
          "type": "string"
        }
      ],
      "stateMutability": "nonpayable",
      "type": "constructor"
    },
    {
      "anonymous": false,
      "inputs": [
        {
          "indexed": true,
          "internalType": "address",
          "name": "owner",
          "type": "address"
        },
        {
          "indexed": true,
          "internalType": "address",
          "name": "approved",
          "type": "address"
        },
        {
          "indexed": true,
          "internalType": "uint256",
          "name": "tokenId",
          "type": "uint256"
        }
      ],
      "name": "Approval",
      "type": "event"
    },
    {
      "anonymous": false,
      "inputs": [
        {
          "indexed": true,
          "internalType": "address",
          "name": "owner",
          "type": "address"
        },
        {
          "indexed": true,
          "internalType": "address",
          "name": "operator",
          "type": "address"
        },
        {
          "indexed": false,
          "internalType": "bool",
          "name": "approved",
          "type": "bool"
        }
      ],
      "name": "ApprovalForAll",
      "type": "event"
    },
    {
      "anonymous": false,
      "inputs": [
        {
          "indexed": false,
          "internalType": "uint256",
          "name": "tokenId",
          "type": "uint256"
        },
        {
          "indexed": false,
          "internalType": "address",
          "name": "owner",
          "type": "address"
        },
        {
          "indexed": false,
          "internalType": "bytes",
          "name": "updatedColor",
          "type": "bytes"
        }
      ],
      "name": "ColorBytesUpdated",
      "type": "event"
    },
    {
      "anonymous": false,
      "inputs": [
        {
          "indexed": true,
          "internalType": "uint256",
          "name": "fromTokenId",
          "type": "uint256"
        },
        {
          "indexed": false,
          "internalType": "uint256",
          "name": "toTokenId",
          "type": "uint256"
        },
        {
          "indexed": true,
          "internalType": "address",
          "name": "fromAddress",
          "type": "address"
        },
        {
          "indexed": true,
          "internalType": "address",
          "name": "toAddress",
          "type": "address"
        }
      ],
      "name": "ConsecutiveTransfer",
      "type": "event"
    },
    {
      "anonymous": false,
      "inputs": [
        {
          "indexed": true,
          "internalType": "address",
          "name": "previousOwner",
          "type": "address"
        },
        {
          "indexed": true,
          "internalType": "address",
          "name": "newOwner",
          "type": "address"
        }
      ],
      "name": "OwnershipTransferred",
      "type": "event"
    },
    {
      "anonymous": false,
      "inputs": [
        {
          "indexed": true,
          "internalType": "address",
          "name": "from",
          "type": "address"
        },
        {
          "indexed": true,
          "internalType": "address",
          "name": "to",
          "type": "address"
        },
        {
          "indexed": true,
          "internalType": "uint256",
          "name": "tokenId",
          "type": "uint256"
        }
      ],
      "name": "Transfer",
      "type": "event"
    },
    {
      "inputs": [
        {
          "internalType": "address",
          "name": "to",
          "type": "address"
        },
        {
          "internalType": "uint256",
          "name": "tokenId",
          "type": "uint256"
        }
      ],
      "name": "approve",
      "outputs": [],
      "stateMutability": "nonpayable",
      "type": "function"
    },
    {
      "inputs": [
        {
          "internalType": "address",
          "name": "owner",
          "type": "address"
        }
      ],
      "name": "balanceOf",
      "outputs": [
        {
          "internalType": "uint256",
          "name": "",
          "type": "uint256"
        }
      ],
      "stateMutability": "view",
      "type": "function",
      "constant": true
    },
    {
      "inputs": [
        {
          "internalType": "uint256",
          "name": "tokenId",
          "type": "uint256"
        }
      ],
      "name": "getApproved",
      "outputs": [
        {
          "internalType": "address",
          "name": "",
          "type": "address"
        }
      ],
      "stateMutability": "view",
      "type": "function",
      "constant": true
    },
    {
      "inputs": [
        {
          "internalType": "address",
          "name": "owner",
          "type": "address"
        },
        {
          "internalType": "address",
          "name": "operator",
          "type": "address"
        }
      ],
      "name": "isApprovedForAll",
      "outputs": [
        {
          "internalType": "bool",
          "name": "",
          "type": "bool"
        }
      ],
      "stateMutability": "view",
      "type": "function",
      "constant": true
    },
    {
      "inputs": [],
      "name": "name",
      "outputs": [
        {
          "internalType": "string",
          "name": "",
          "type": "string"
        }
      ],
      "stateMutability": "view",
      "type": "function",
      "constant": true
    },
    {
      "inputs": [],
      "name": "owner",
      "outputs": [
        {
          "internalType": "address",
          "name": "",
          "type": "address"
        }
      ],
      "stateMutability": "view",
      "type": "function",
      "constant": true
    },
    {
      "inputs": [
        {
          "internalType": "uint256",
          "name": "tokenId",
          "type": "uint256"
        }
      ],
      "name": "ownerOf",
      "outputs": [
        {
          "internalType": "address",
          "name": "",
          "type": "address"
        }
      ],
      "stateMutability": "view",
      "type": "function",
      "constant": true
    },
    {
      "inputs": [],
      "name": "renounceOwnership",
      "outputs": [],
      "stateMutability": "nonpayable",
      "type": "function"
    },
    {
      "inputs": [
        {
          "internalType": "address",
          "name": "from",
          "type": "address"
        },
        {
          "internalType": "address",
          "name": "to",
          "type": "address"
        },
        {
          "internalType": "uint256",
          "name": "tokenId",
          "type": "uint256"
        }
      ],
      "name": "safeTransferFrom",
      "outputs": [],
      "stateMutability": "nonpayable",
      "type": "function"
    },
    {
      "inputs": [
        {
          "internalType": "address",
          "name": "from",
          "type": "address"
        },
        {
          "internalType": "address",
          "name": "to",
          "type": "address"
        },
        {
          "internalType": "uint256",
          "name": "tokenId",
          "type": "uint256"
        },
        {
          "internalType": "bytes",
          "name": "_data",
          "type": "bytes"
        }
      ],
      "name": "safeTransferFrom",
      "outputs": [],
      "stateMutability": "nonpayable",
      "type": "function"
    },
    {
      "inputs": [
        {
          "internalType": "address",
          "name": "operator",
          "type": "address"
        },
        {
          "internalType": "bool",
          "name": "approved",
          "type": "bool"
        }
      ],
      "name": "setApprovalForAll",
      "outputs": [],
      "stateMutability": "nonpayable",
      "type": "function"
    },
    {
      "inputs": [
        {
          "internalType": "bytes4",
          "name": "interfaceId",
          "type": "bytes4"
        }
      ],
      "name": "supportsInterface",
      "outputs": [
        {
          "internalType": "bool",
          "name": "",
          "type": "bool"
        }
      ],
      "stateMutability": "view",
      "type": "function",
      "constant": true
    },
    {
      "inputs": [],
      "name": "symbol",
      "outputs": [
        {
          "internalType": "string",
          "name": "",
          "type": "string"
        }
      ],
      "stateMutability": "view",
      "type": "function",
      "constant": true
    },
    {
      "inputs": [
        {
          "internalType": "uint256",
          "name": "tokenId",
          "type": "uint256"
        }
      ],
      "name": "tokenURI",
      "outputs": [
        {
          "internalType": "string",
          "name": "",
          "type": "string"
        }
      ],
      "stateMutability": "view",
      "type": "function",
      "constant": true
    },
    {
      "inputs": [
        {
          "internalType": "address",
          "name": "from",
          "type": "address"
        },
        {
          "internalType": "address",
          "name": "to",
          "type": "address"
        },
        {
          "internalType": "uint256",
          "name": "tokenId",
          "type": "uint256"
        }
      ],
      "name": "transferFrom",
      "outputs": [],
      "stateMutability": "nonpayable",
      "type": "function"
    },
    {
      "inputs": [
        {
          "internalType": "address",
          "name": "newOwner",
          "type": "address"
        }
      ],
      "name": "transferOwnership",
      "outputs": [],
      "stateMutability": "nonpayable",
      "type": "function"
    },
    {
      "inputs": [
        {
          "internalType": "uint256",
          "name": "tokenId",
          "type": "uint256"
        }
      ],
      "name": "getOwner",
      "outputs": [
        {
          "internalType": "address",
          "name": "",
          "type": "address"
        }
      ],
      "stateMutability": "view",
      "type": "function",
      "constant": true
    },
    {
      "inputs": [
        {
          "internalType": "uint256[]",
          "name": "tokenIds",
          "type": "uint256[]"
        },
        {
          "internalType": "bytes[]",
          "name": "colors",
          "type": "bytes[]"
        }
      ],
      "name": "setColorBytesBulk",
      "outputs": [],
      "stateMutability": "nonpayable",
      "type": "function"
    },
    {
      "inputs": [
        {
          "internalType": "uint256",
          "name": "tokenId",
          "type": "uint256"
        },
        {
          "internalType": "bytes",
          "name": "color",
          "type": "bytes"
        }
      ],
      "name": "setColorBytes",
      "outputs": [],
      "stateMutability": "nonpayable",
      "type": "function"
    }
  ],
  "bytecode": "0x60806040523480156200001157600080fd5b50604051620037c4380380620037c483398181016040528101906200003791906200052f565b6040518060400160405280600581526020017f54696c65730000000000000000000000000000000000000000000000000000008152506040518060400160405280600381526020017f54494c0000000000000000000000000000000000000000000000000000000000815250620000c3620000b76200017360201b60201c565b6200017b60201b60201c565b8160019080519060200190620000db929190620003ea565b508060029080519060200190620000f4929190620003ea565b50505033600860006101000a81548173ffffffffffffffffffffffffffffffffffffffff021916908373ffffffffffffffffffffffffffffffffffffffff16021790555061138860098190555080600a908051906020019062000159929190620003ea565b506200016b826200023f60201b60201c565b505062000858565b600033905090565b60008060009054906101000a900473ffffffffffffffffffffffffffffffffffffffff169050816000806101000a81548173ffffffffffffffffffffffffffffffffffffffff021916908373ffffffffffffffffffffffffffffffffffffffff1602179055508173ffffffffffffffffffffffffffffffffffffffff168173ffffffffffffffffffffffffffffffffffffffff167f8be0079c531659141344cd1fd0a4f28419497f9722a3daafe3b4186f6b6457e060405160405180910390a35050565b6200024f620003c160201b60201c565b73ffffffffffffffffffffffffffffffffffffffff163373ffffffffffffffffffffffffffffffffffffffff16146200028757600080fd5b600060075414620002cf576040517f08c379a0000000000000000000000000000000000000000000000000000000008152600401620002c690620005cd565b60405180910390fd5b60008111620002dd57600080fd5b806007819055508060046000620002f9620003c160201b60201c565b73ffffffffffffffffffffffffffffffffffffffff1673ffffffffffffffffffffffffffffffffffffffff1681526020019081526020016000208190555062000347620003c160201b60201c565b73ffffffffffffffffffffffffffffffffffffffff16600073ffffffffffffffffffffffffffffffffffffffff1660007fdeaa91b6123d068f5821d0fb0678463d1a8a6079fe8af5de3ce5e896dcf9133d600185620003a791906200067c565b604051620003b69190620005ef565b60405180910390a450565b60008060009054906101000a900473ffffffffffffffffffffffffffffffffffffffff16905090565b828054620003f890620006f7565b90600052602060002090601f0160209004810192826200041c576000855562000468565b82601f106200043757805160ff191683800117855562000468565b8280016001018555821562000468579182015b82811115620004675782518255916020019190600101906200044a565b5b5090506200047791906200047b565b5090565b5b80821115620004965760008160009055506001016200047c565b5090565b6000620004b1620004ab8462000635565b6200060c565b905082815260208101848484011115620004d057620004cf620007f5565b5b620004dd848285620006c1565b509392505050565b600082601f830112620004fd57620004fc620007f0565b5b81516200050f8482602086016200049a565b91505092915050565b60008151905062000529816200083e565b92915050565b60008060408385031215620005495762000548620007ff565b5b6000620005598582860162000518565b925050602083015167ffffffffffffffff8111156200057d576200057c620007fa565b5b6200058b85828601620004e5565b9150509250929050565b6000620005a46017836200066b565b9150620005b18262000815565b602082019050919050565b620005c781620006b7565b82525050565b60006020820190508181036000830152620005e88162000595565b9050919050565b6000602082019050620006066000830184620005bc565b92915050565b6000620006186200062b565b90506200062682826200072d565b919050565b6000604051905090565b600067ffffffffffffffff821115620006535762000652620007c1565b5b6200065e8262000804565b9050602081019050919050565b600082825260208201905092915050565b60006200068982620006b7565b91506200069683620006b7565b925082821015620006ac57620006ab62000763565b5b828203905092915050565b6000819050919050565b60005b83811015620006e1578082015181840152602081019050620006c4565b83811115620006f1576000848401525b50505050565b600060028204905060018216806200071057607f821691505b6020821081141562000727576200072662000792565b5b50919050565b620007388262000804565b810181811067ffffffffffffffff821117156200075a5762000759620007c1565b5b80604052505050565b7f4e487b7100000000000000000000000000000000000000000000000000000000600052601160045260246000fd5b7f4e487b7100000000000000000000000000000000000000000000000000000000600052602260045260246000fd5b7f4e487b7100000000000000000000000000000000000000000000000000000000600052604160045260246000fd5b600080fd5b600080fd5b600080fd5b600080fd5b6000601f19601f8301169050919050565b7f596f752063616e206f6e6c79206d696e74206f6e636521000000000000000000600082015250565b6200084981620006b7565b81146200085557600080fd5b50565b612f5c80620008686000396000f3fe608060405234801561001057600080fd5b50600436106101215760003560e01c8063719f61f5116100ad578063b88d4fde11610071578063b88d4fde146102f2578063c41a360a1461030e578063c87b56dd1461033e578063e985e9c51461036e578063f2fde38b1461039e57610121565b8063719f61f514610262578063720dce6a1461027e5780638da5cb5b1461029a57806395d89b41146102b8578063a22cb465146102d657610121565b806323b872dd116100f457806323b872dd146101c057806342842e0e146101dc5780636352211e146101f857806370a0823114610228578063715018a61461025857610121565b806301ffc9a71461012657806306fdde0314610156578063081812fc14610174578063095ea7b3146101a4575b600080fd5b610140600480360381019061013b9190611e1c565b6103ba565b60405161014d91906122d0565b60405180910390f35b61015e61049c565b60405161016b91906122eb565b60405180910390f35b61018e60048036038101906101899190611e76565b61052e565b60405161019b9190612269565b60405180910390f35b6101be60048036038101906101b99190611d64565b6105b3565b005b6101da60048036038101906101d59190611c4e565b6106cb565b005b6101f660048036038101906101f19190611c4e565b61072b565b005b610212600480360381019061020d9190611e76565b61074b565b60405161021f9190612269565b60405180910390f35b610242600480360381019061023d9190611be1565b610818565b60405161024f919061254d565b60405180910390f35b6102606108d0565b005b61027c60048036038101906102779190611da4565b610958565b005b61029860048036038101906102939190611ea3565b610a0b565b005b6102a2610b20565b6040516102af9190612269565b60405180910390f35b6102c0610b49565b6040516102cd91906122eb565b60405180910390f35b6102f060048036038101906102eb9190611d24565b610bdb565b005b61030c60048036038101906103079190611ca1565b610d5c565b005b61032860048036038101906103239190611e76565b610dbe565b6040516103359190612269565b60405180910390f35b61035860048036038101906103539190611e76565b610de8565b60405161036591906122eb565b60405180910390f35b61038860048036038101906103839190611c0e565b610e8f565b60405161039591906122d0565b60405180910390f35b6103b860048036038101906103b39190611be1565b610f23565b005b60007f80ac58cd000000000000000000000000000000000000000000000000000000007bffffffffffffffffffffffffffffffffffffffffffffffffffffffff1916827bffffffffffffffffffffffffffffffffffffffffffffffffffffffff1916148061048557507f5b5e139f000000000000000000000000000000000000000000000000000000007bffffffffffffffffffffffffffffffffffffffffffffffffffffffff1916827bffffffffffffffffffffffffffffffffffffffffffffffffffffffff1916145b8061049557506104948261101b565b5b9050919050565b6060600180546104ab90612808565b80601f01602080910402602001604051908101604052809291908181526020018280546104d790612808565b80156105245780601f106104f957610100808354040283529160200191610524565b820191906000526020600020905b81548152906001019060200180831161050757829003601f168201915b5050505050905090565b600061053982611085565b610578576040517f08c379a000000000000000000000000000000000000000000000000000000000815260040161056f9061248d565b60405180910390fd5b6005600083815260200190815260200160002060009054906101000a900473ffffffffffffffffffffffffffffffffffffffff169050919050565b60006105be8261074b565b90508073ffffffffffffffffffffffffffffffffffffffff168373ffffffffffffffffffffffffffffffffffffffff16141561062f576040517f08c379a00000000000000000000000000000000000000000000000000000000081526004016106269061250d565b60405180910390fd5b8073ffffffffffffffffffffffffffffffffffffffff1661064e611093565b73ffffffffffffffffffffffffffffffffffffffff16148061067d575061067c81610677611093565b610e8f565b5b6106bc576040517f08c379a00000000000000000000000000000000000000000000000000000000081526004016106b39061244d565b60405180910390fd5b6106c6838361109b565b505050565b6106dc6106d6611093565b82611154565b61071b576040517f08c379a00000000000000000000000000000000000000000000000000000000081526004016107129061252d565b60405180910390fd5b610726838383611232565b505050565b61074683838360405180602001604052806000815250610d5c565b505050565b60006007548210610791576040517f08c379a0000000000000000000000000000000000000000000000000000000008152600401610788906123ad565b60405180910390fd5b60006003600084815260200190815260200160002060009054906101000a900473ffffffffffffffffffffffffffffffffffffffff169050600073ffffffffffffffffffffffffffffffffffffffff168173ffffffffffffffffffffffffffffffffffffffff16141561080e57610806610b20565b915050610813565b809150505b919050565b60008073ffffffffffffffffffffffffffffffffffffffff168273ffffffffffffffffffffffffffffffffffffffff161415610889576040517f08c379a00000000000000000000000000000000000000000000000000000000081526004016108809061246d565b60405180910390fd5b600460008373ffffffffffffffffffffffffffffffffffffffff1673ffffffffffffffffffffffffffffffffffffffff168152602001908152602001600020549050919050565b6108d8611093565b73ffffffffffffffffffffffffffffffffffffffff166108f6610b20565b73ffffffffffffffffffffffffffffffffffffffff161461094c576040517f08c379a0000000000000000000000000000000000000000000000000000000008152600401610943906124ad565b60405180910390fd5b610956600061148e565b565b6000825111801561096a575080518251145b6109a9576040517f08c379a00000000000000000000000000000000000000000000000000000000081526004016109a09061230d565b60405180910390fd5b60005b8251811015610a06576109f38382815181106109cb576109ca612972565b5b60200260200101518383815181106109e6576109e5612972565b5b6020026020010151610a0b565b80806109fe9061286b565b9150506109ac565b505050565b610a1482611552565b610a53576040517f08c379a0000000000000000000000000000000000000000000000000000000008152600401610a4a9061242d565b60405180910390fd5b610a5d8233611565565b610a9c576040517f08c379a0000000000000000000000000000000000000000000000000000000008152600401610a939061234d565b60405180910390fd5b600954815110610ae1576040517f08c379a0000000000000000000000000000000000000000000000000000000008152600401610ad89061232d565b60405180910390fd5b7ff9785b36c26c205a690a0a7bfb3acb423155645c2cd9c2e27e913375f2b596a6823383604051610b1493929190612568565b60405180910390a15050565b60008060009054906101000a900473ffffffffffffffffffffffffffffffffffffffff16905090565b606060028054610b5890612808565b80601f0160208091040260200160405190810160405280929190818152602001828054610b8490612808565b8015610bd15780601f10610ba657610100808354040283529160200191610bd1565b820191906000526020600020905b815481529060010190602001808311610bb457829003601f168201915b5050505050905090565b610be3611093565b73ffffffffffffffffffffffffffffffffffffffff168273ffffffffffffffffffffffffffffffffffffffff161415610c51576040517f08c379a0000000000000000000000000000000000000000000000000000000008152600401610c48906123ed565b60405180910390fd5b8060066000610c5e611093565b73ffffffffffffffffffffffffffffffffffffffff1673ffffffffffffffffffffffffffffffffffffffff16815260200190815260200160002060008473ffffffffffffffffffffffffffffffffffffffff1673ffffffffffffffffffffffffffffffffffffffff16815260200190815260200160002060006101000a81548160ff0219169083151502179055508173ffffffffffffffffffffffffffffffffffffffff16610d0b611093565b73ffffffffffffffffffffffffffffffffffffffff167f17307eab39ab6107e8899845ad3d59bd9653f200f220920489ca2b5937696c3183604051610d5091906122d0565b60405180910390a35050565b610d6d610d67611093565b83611154565b610dac576040517f08c379a0000000000000000000000000000000000000000000000000000000008152600401610da39061252d565b60405180910390fd5b610db8848484846115a6565b50505050565b6000610dc982611085565b15610dde57610dd78261074b565b9050610de3565b600090505b919050565b6060610df382611085565b610e32576040517f08c379a0000000000000000000000000000000000000000000000000000000008152600401610e29906124ed565b60405180910390fd5b6000610e3c611602565b90506000815111610e5c5760405180602001604052806000815250610e87565b80610e6684611694565b604051602001610e77929190612245565b6040516020818303038152906040525b915050919050565b6000600660008473ffffffffffffffffffffffffffffffffffffffff1673ffffffffffffffffffffffffffffffffffffffff16815260200190815260200160002060008373ffffffffffffffffffffffffffffffffffffffff1673ffffffffffffffffffffffffffffffffffffffff16815260200190815260200160002060009054906101000a900460ff16905092915050565b610f2b611093565b73ffffffffffffffffffffffffffffffffffffffff16610f49610b20565b73ffffffffffffffffffffffffffffffffffffffff1614610f9f576040517f08c379a0000000000000000000000000000000000000000000000000000000008152600401610f96906124ad565b60405180910390fd5b600073ffffffffffffffffffffffffffffffffffffffff168173ffffffffffffffffffffffffffffffffffffffff16141561100f576040517f08c379a00000000000000000000000000000000000000000000000000000000081526004016110069061238d565b60405180910390fd5b6110188161148e565b50565b60007f01ffc9a7000000000000000000000000000000000000000000000000000000007bffffffffffffffffffffffffffffffffffffffffffffffffffffffff1916827bffffffffffffffffffffffffffffffffffffffffffffffffffffffff1916149050919050565b600060075482109050919050565b600033905090565b816005600083815260200190815260200160002060006101000a81548173ffffffffffffffffffffffffffffffffffffffff021916908373ffffffffffffffffffffffffffffffffffffffff160217905550808273ffffffffffffffffffffffffffffffffffffffff1661110e8361074b565b73ffffffffffffffffffffffffffffffffffffffff167f8c5be1e5ebec7d5bd14f71427d1e84f3dd0314c0f7b2291e5b200ac8c7c3b92560405160405180910390a45050565b600061115f82611085565b61119e576040517f08c379a00000000000000000000000000000000000000000000000000000000081526004016111959061240d565b60405180910390fd5b60006111a98361074b565b90508073ffffffffffffffffffffffffffffffffffffffff168473ffffffffffffffffffffffffffffffffffffffff16148061121857508373ffffffffffffffffffffffffffffffffffffffff166112008461052e565b73ffffffffffffffffffffffffffffffffffffffff16145b8061122957506112288185610e8f565b5b91505092915050565b8273ffffffffffffffffffffffffffffffffffffffff166112528261074b565b73ffffffffffffffffffffffffffffffffffffffff16146112a8576040517f08c379a000000000000000000000000000000000000000000000000000000000815260040161129f906124cd565b60405180910390fd5b600073ffffffffffffffffffffffffffffffffffffffff168273ffffffffffffffffffffffffffffffffffffffff161415611318576040517f08c379a000000000000000000000000000000000000000000000000000000000815260040161130f906123cd565b60405180910390fd5b6113238383836117f5565b61132e60008261109b565b6001600460008573ffffffffffffffffffffffffffffffffffffffff1673ffffffffffffffffffffffffffffffffffffffff168152602001908152602001600020600082825461137e919061271e565b925050819055506001600460008473ffffffffffffffffffffffffffffffffffffffff1673ffffffffffffffffffffffffffffffffffffffff16815260200190815260200160002060008282546113d59190612697565b92505081905550816003600083815260200190815260200160002060006101000a81548173ffffffffffffffffffffffffffffffffffffffff021916908373ffffffffffffffffffffffffffffffffffffffff160217905550808273ffffffffffffffffffffffffffffffffffffffff168473ffffffffffffffffffffffffffffffffffffffff167fddf252ad1be2c89b69c2b068fc378daa952ba7f163c4a11628f55a4df523b3ef60405160405180910390a4505050565b60008060009054906101000a900473ffffffffffffffffffffffffffffffffffffffff169050816000806101000a81548173ffffffffffffffffffffffffffffffffffffffff021916908373ffffffffffffffffffffffffffffffffffffffff1602179055508173ffffffffffffffffffffffffffffffffffffffff168173ffffffffffffffffffffffffffffffffffffffff167f8be0079c531659141344cd1fd0a4f28419497f9722a3daafe3b4186f6b6457e060405160405180910390a35050565b600061155c6117fa565b82109050919050565b60008173ffffffffffffffffffffffffffffffffffffffff166115878461074b565b73ffffffffffffffffffffffffffffffffffffffff1614905092915050565b6115b1848484611232565b6115bd84848484611804565b6115fc576040517f08c379a00000000000000000000000000000000000000000000000000000000081526004016115f39061236d565b60405180910390fd5b50505050565b6060600a805461161190612808565b80601f016020809104026020016040519081016040528092919081815260200182805461163d90612808565b801561168a5780601f1061165f5761010080835404028352916020019161168a565b820191906000526020600020905b81548152906001019060200180831161166d57829003601f168201915b5050505050905090565b606060008214156116dc576040518060400160405280600181526020017f300000000000000000000000000000000000000000000000000000000000000081525090506117f0565b600082905060005b6000821461170e5780806116f79061286b565b915050600a8261170791906126ed565b91506116e4565b60008167ffffffffffffffff81111561172a576117296129a1565b5b6040519080825280601f01601f19166020018201604052801561175c5781602001600182028036833780820191505090505b5090505b600085146117e957600182611775919061271e565b9150600a8561178491906128b4565b60306117909190612697565b60f81b8183815181106117a6576117a5612972565b5b60200101907effffffffffffffffffffffffffffffffffffffffffffffffffffffffffffff1916908160001a905350600a856117e291906126ed565b9450611760565b8093505050505b919050565b505050565b6000600754905090565b60006118258473ffffffffffffffffffffffffffffffffffffffff1661199b565b1561198e578373ffffffffffffffffffffffffffffffffffffffff1663150b7a0261184e611093565b8786866040518563ffffffff1660e01b81526004016118709493929190612284565b602060405180830381600087803b15801561188a57600080fd5b505af19250505080156118bb57506040513d601f19601f820116820180604052508101906118b89190611e49565b60015b61193e573d80600081146118eb576040519150601f19603f3d011682016040523d82523d6000602084013e6118f0565b606091505b50600081511415611936576040517f08c379a000000000000000000000000000000000000000000000000000000000815260040161192d9061236d565b60405180910390fd5b805181602001fd5b63150b7a0260e01b7bffffffffffffffffffffffffffffffffffffffffffffffffffffffff1916817bffffffffffffffffffffffffffffffffffffffffffffffffffffffff191614915050611993565b600190505b949350505050565b600080823b905060008111915050919050565b60006119c16119bc846125cb565b6125a6565b905080838252602082019050828560208602820111156119e4576119e36129d5565b5b60005b85811015611a3257813567ffffffffffffffff811115611a0a57611a096129d0565b5b808601611a178982611b9e565b855260208501945060208401935050506001810190506119e7565b5050509392505050565b6000611a4f611a4a846125f7565b6125a6565b90508083825260208201905082856020860282011115611a7257611a716129d5565b5b60005b85811015611aa25781611a888882611bcc565b845260208401935060208301925050600181019050611a75565b5050509392505050565b6000611abf611aba84612623565b6125a6565b905082815260208101848484011115611adb57611ada6129da565b5b611ae68482856127c6565b509392505050565b600081359050611afd81612eca565b92915050565b600082601f830112611b1857611b176129d0565b5b8135611b288482602086016119ae565b91505092915050565b600082601f830112611b4657611b456129d0565b5b8135611b56848260208601611a3c565b91505092915050565b600081359050611b6e81612ee1565b92915050565b600081359050611b8381612ef8565b92915050565b600081519050611b9881612ef8565b92915050565b600082601f830112611bb357611bb26129d0565b5b8135611bc3848260208601611aac565b91505092915050565b600081359050611bdb81612f0f565b92915050565b600060208284031215611bf757611bf66129e4565b5b6000611c0584828501611aee565b91505092915050565b60008060408385031215611c2557611c246129e4565b5b6000611c3385828601611aee565b9250506020611c4485828601611aee565b9150509250929050565b600080600060608486031215611c6757611c666129e4565b5b6000611c7586828701611aee565b9350506020611c8686828701611aee565b9250506040611c9786828701611bcc565b9150509250925092565b60008060008060808587031215611cbb57611cba6129e4565b5b6000611cc987828801611aee565b9450506020611cda87828801611aee565b9350506040611ceb87828801611bcc565b925050606085013567ffffffffffffffff811115611d0c57611d0b6129df565b5b611d1887828801611b9e565b91505092959194509250565b60008060408385031215611d3b57611d3a6129e4565b5b6000611d4985828601611aee565b9250506020611d5a85828601611b5f565b9150509250929050565b60008060408385031215611d7b57611d7a6129e4565b5b6000611d8985828601611aee565b9250506020611d9a85828601611bcc565b9150509250929050565b60008060408385031215611dbb57611dba6129e4565b5b600083013567ffffffffffffffff811115611dd957611dd86129df565b5b611de585828601611b31565b925050602083013567ffffffffffffffff811115611e0657611e056129df565b5b611e1285828601611b03565b9150509250929050565b600060208284031215611e3257611e316129e4565b5b6000611e4084828501611b74565b91505092915050565b600060208284031215611e5f57611e5e6129e4565b5b6000611e6d84828501611b89565b91505092915050565b600060208284031215611e8c57611e8b6129e4565b5b6000611e9a84828501611bcc565b91505092915050565b60008060408385031215611eba57611eb96129e4565b5b6000611ec885828601611bcc565b925050602083013567ffffffffffffffff811115611ee957611ee86129df565b5b611ef585828601611b9e565b9150509250929050565b611f0881612752565b82525050565b611f1781612764565b82525050565b6000611f2882612654565b611f32818561266a565b9350611f428185602086016127d5565b611f4b816129e9565b840191505092915050565b6000611f618261265f565b611f6b818561267b565b9350611f7b8185602086016127d5565b611f84816129e9565b840191505092915050565b6000611f9a8261265f565b611fa4818561268c565b9350611fb48185602086016127d5565b80840191505092915050565b6000611fcd60288361267b565b9150611fd8826129fa565b604082019050919050565b6000611ff0602e8361267b565b9150611ffb82612a49565b604082019050919050565b6000612013601d8361267b565b915061201e82612a98565b602082019050919050565b600061203660328361267b565b915061204182612ac1565b604082019050919050565b600061205960268361267b565b915061206482612b10565b604082019050919050565b600061207c601e8361267b565b915061208782612b5f565b602082019050919050565b600061209f60248361267b565b91506120aa82612b88565b604082019050919050565b60006120c260198361267b565b91506120cd82612bd7565b602082019050919050565b60006120e5602c8361267b565b91506120f082612c00565b604082019050919050565b600061210860128361267b565b915061211382612c4f565b602082019050919050565b600061212b60388361267b565b915061213682612c78565b604082019050919050565b600061214e602a8361267b565b915061215982612cc7565b604082019050919050565b6000612171602c8361267b565b915061217c82612d16565b604082019050919050565b600061219460208361267b565b915061219f82612d65565b602082019050919050565b60006121b760298361267b565b91506121c282612d8e565b604082019050919050565b60006121da602f8361267b565b91506121e582612ddd565b604082019050919050565b60006121fd60218361267b565b915061220882612e2c565b604082019050919050565b600061222060318361267b565b915061222b82612e7b565b604082019050919050565b61223f816127bc565b82525050565b60006122518285611f8f565b915061225d8284611f8f565b91508190509392505050565b600060208201905061227e6000830184611eff565b92915050565b60006080820190506122996000830187611eff565b6122a66020830186611eff565b6122b36040830185612236565b81810360608301526122c58184611f1d565b905095945050505050565b60006020820190506122e56000830184611f0e565b92915050565b600060208201905081810360008301526123058184611f56565b905092915050565b6000602082019050818103600083015261232681611fc0565b9050919050565b6000602082019050818103600083015261234681611fe3565b9050919050565b6000602082019050818103600083015261236681612006565b9050919050565b6000602082019050818103600083015261238681612029565b9050919050565b600060208201905081810360008301526123a68161204c565b9050919050565b600060208201905081810360008301526123c68161206f565b9050919050565b600060208201905081810360008301526123e681612092565b9050919050565b60006020820190508181036000830152612406816120b5565b9050919050565b60006020820190508181036000830152612426816120d8565b9050919050565b60006020820190508181036000830152612446816120fb565b9050919050565b600060208201905081810360008301526124668161211e565b9050919050565b6000602082019050818103600083015261248681612141565b9050919050565b600060208201905081810360008301526124a681612164565b9050919050565b600060208201905081810360008301526124c681612187565b9050919050565b600060208201905081810360008301526124e6816121aa565b9050919050565b60006020820190508181036000830152612506816121cd565b9050919050565b60006020820190508181036000830152612526816121f0565b9050919050565b6000602082019050818103600083015261254681612213565b9050919050565b60006020820190506125626000830184612236565b92915050565b600060608201905061257d6000830186612236565b61258a6020830185611eff565b818103604083015261259c8184611f1d565b9050949350505050565b60006125b06125c1565b90506125bc828261283a565b919050565b6000604051905090565b600067ffffffffffffffff8211156125e6576125e56129a1565b5b602082029050602081019050919050565b600067ffffffffffffffff821115612612576126116129a1565b5b602082029050602081019050919050565b600067ffffffffffffffff82111561263e5761263d6129a1565b5b612647826129e9565b9050602081019050919050565b600081519050919050565b600081519050919050565b600082825260208201905092915050565b600082825260208201905092915050565b600081905092915050565b60006126a2826127bc565b91506126ad836127bc565b9250827fffffffffffffffffffffffffffffffffffffffffffffffffffffffffffffffff038211156126e2576126e16128e5565b5b828201905092915050565b60006126f8826127bc565b9150612703836127bc565b92508261271357612712612914565b5b828204905092915050565b6000612729826127bc565b9150612734836127bc565b925082821015612747576127466128e5565b5b828203905092915050565b600061275d8261279c565b9050919050565b60008115159050919050565b60007fffffffff0000000000000000000000000000000000000000000000000000000082169050919050565b600073ffffffffffffffffffffffffffffffffffffffff82169050919050565b6000819050919050565b82818337600083830152505050565b60005b838110156127f35780820151818401526020810190506127d8565b83811115612802576000848401525b50505050565b6000600282049050600182168061282057607f821691505b6020821081141561283457612833612943565b5b50919050565b612843826129e9565b810181811067ffffffffffffffff82111715612862576128616129a1565b5b80604052505050565b6000612876826127bc565b91507fffffffffffffffffffffffffffffffffffffffffffffffffffffffffffffffff8214156128a9576128a86128e5565b5b600182019050919050565b60006128bf826127bc565b91506128ca836127bc565b9250826128da576128d9612914565b5b828206905092915050565b7f4e487b7100000000000000000000000000000000000000000000000000000000600052601160045260246000fd5b7f4e487b7100000000000000000000000000000000000000000000000000000000600052601260045260246000fd5b7f4e487b7100000000000000000000000000000000000000000000000000000000600052602260045260246000fd5b7f4e487b7100000000000000000000000000000000000000000000000000000000600052603260045260246000fd5b7f4e487b7100000000000000000000000000000000000000000000000000000000600052604160045260246000fd5b600080fd5b600080fd5b600080fd5b600080fd5b600080fd5b6000601f19601f8301169050919050565b7f746f6b656e496473206c656e677468206d757374206d6174636820636f6c6f7260008201527f73206c656e677468000000000000000000000000000000000000000000000000602082015250565b7f436f6c6f7220617272617920697320746f6f206269672c20706c65617365207560008201527f736520313678313620696d616765000000000000000000000000000000000000602082015250565b7f53656e646572206973206e6f742074686520746f6b656e206f776e6572000000600082015250565b7f4552433732313a207472616e7366657220746f206e6f6e20455243373231526560008201527f63656976657220696d706c656d656e7465720000000000000000000000000000602082015250565b7f4f776e61626c653a206e6577206f776e657220697320746865207a65726f206160008201527f6464726573730000000000000000000000000000000000000000000000000000602082015250565b7f546f6b656e7320686176656e2774206265656e206d696e746564207965740000600082015250565b7f4552433732313a207472616e7366657220746f20746865207a65726f2061646460008201527f7265737300000000000000000000000000000000000000000000000000000000602082015250565b7f4552433732313a20617070726f766520746f2063616c6c657200000000000000600082015250565b7f4552433732313a206f70657261746f7220717565727920666f72206e6f6e657860008201527f697374656e7420746f6b656e0000000000000000000000000000000000000000602082015250565b7f546f6b656e496420697320696e76616c69640000000000000000000000000000600082015250565b7f4552433732313a20617070726f76652063616c6c6572206973206e6f74206f7760008201527f6e6572206e6f7220617070726f76656420666f7220616c6c0000000000000000602082015250565b7f4552433732313a2062616c616e636520717565727920666f7220746865207a6560008201527f726f206164647265737300000000000000000000000000000000000000000000602082015250565b7f4552433732313a20617070726f76656420717565727920666f72206e6f6e657860008201527f697374656e7420746f6b656e0000000000000000000000000000000000000000602082015250565b7f4f776e61626c653a2063616c6c6572206973206e6f7420746865206f776e6572600082015250565b7f4552433732313a207472616e73666572206f6620746f6b656e2074686174206960008201527f73206e6f74206f776e0000000000000000000000000000000000000000000000602082015250565b7f4552433732314d657461646174613a2055524920717565727920666f72206e6f60008201527f6e6578697374656e7420746f6b656e0000000000000000000000000000000000602082015250565b7f4552433732313a20617070726f76616c20746f2063757272656e74206f776e6560008201527f7200000000000000000000000000000000000000000000000000000000000000602082015250565b7f4552433732313a207472616e736665722063616c6c6572206973206e6f74206f60008201527f776e6572206e6f7220617070726f766564000000000000000000000000000000602082015250565b612ed381612752565b8114612ede57600080fd5b50565b612eea81612764565b8114612ef557600080fd5b50565b612f0181612770565b8114612f0c57600080fd5b50565b612f18816127bc565b8114612f2357600080fd5b5056fea264697066735822122007f65bbb0205415251c4bd4fc27e5c4ae0215f9ab48cafbc53ad66409f7c1bff64736f6c63430008070033",
  "immutableReferences": {},
  "source": "// SPDX-License-Identifier: MIT\r\n\r\npragma solidity ^0.8.0;\r\n\r\nimport \"../../openzeppelin-contracts/contracts/token/ERC2309/ERC2309.sol\";\r\n\r\n/**\r\n  @dev ERC721, Non-Fungible Token, implementation.  There are 7056\r\n    available NFTs.  Includes functionality to mint new tiles as well\r\n    as to update the color of the tile.\r\n */\r\ncontract CryptoCanvas is ERC2309 {\r\n    address admin;\r\n    uint maxColorSize;\r\n    string uri;\r\n\r\n    /**\r\n     * @dev Emitted when `owner` changes the `tokenId` color to `updatedColor`.\r\n     */ \r\n    event ColorBytesUpdated(uint tokenId, address owner, bytes updatedColor);\r\n\r\n    constructor(uint _tokenCount, string memory _uri) ERC2309(\"Tiles\", \"TIL\") {\r\n        admin = msg.sender;\r\n        maxColorSize = 5000;\r\n        uri = _uri;\r\n        _mintConsecutive(_tokenCount); //7056\r\n    }\r\n\r\n    /**\r\n     * @dev Returns the owner of the tile, or the empty address if no\r\n     * owner exists or out of range.\r\n     */\r\n    function getOwner(uint tokenId) external view returns (address) {\r\n        if (_exists(tokenId)) {\r\n            return ownerOf(tokenId);\r\n        } else {\r\n            return address(0);\r\n        }\r\n    }\r\n\r\n\r\n    /**\r\n     * @dev Overriding URI from {ERC721-_baseURI}.  Used to display the NFT metadata.\r\n     */\r\n    function _baseURI() override internal view returns (string memory) {\r\n        return uri;\r\n    }\r\n\r\n    /**\r\n     * @dev Sets the color for all `tokenIds`.  `colors` will be updated for `tokenIds` with the same index.\r\n     * Setting the color is actually just emitting an event.\r\n     * For example tokenIds=[10,50] and colors=[x,y] would emit events \r\n     * ColorBytesUpdated(10, <msg.sender>, x) and ColorBytesUpdated(50, <msg.sender>, y)\r\n     *\r\n     * Requires tokenIds and colors to be the same length.\r\n     */\r\n    function setColorBytesBulk(uint[] memory tokenIds, bytes[] memory colors) external {\r\n        require(tokenIds.length > 0 && tokenIds.length == colors.length, \"tokenIds length must match colors length\");\r\n        for (uint i = 0; i < tokenIds.length; i++) {\r\n            setColorBytes(tokenIds[i], colors[i]);\r\n        }\r\n    }\r\n\r\n    /**\r\n     * @dev Sets the `color` for `tokenId`\r\n     * Setting the color is actually just emitting an event.\r\n     * Does a sanity check to ensure people aren't uploading full size images or other large data.\r\n     * Full validation of the color byte array is handled off chain to ensure it is a png, jpg, or gif.\r\n     *\r\n     * Emits a {ColorBytesUpdated} event\r\n     */\r\n    function setColorBytes(uint tokenId, bytes memory color) public {\r\n        require(_isValidToken(tokenId), \"TokenId is invalid\");\r\n        require(_isOwner(tokenId, msg.sender), \"Sender is not the token owner\");\r\n\r\n        require(color.length < maxColorSize, \"Color array is too big, please use 16x16 image\");\r\n\r\n        emit ColorBytesUpdated(tokenId, msg.sender, color);\r\n    }\r\n\r\n    /**\r\n     * @dev Tokens 0 - 7055 are valid\r\n     */\r\n    function _isValidToken(uint tokenId) private view returns (bool) {\r\n        return tokenId < _getTokenCount();\r\n    }\r\n\r\n    function _isOwner(uint tokenId, address addr) private view returns (bool){\r\n        return ownerOf(tokenId) == addr;\r\n    }\r\n\r\n}",
  "sourcePath": "C:/Users/Zach/IdeaProjects/canvas-contracts/contracts/CryptoCanvas.sol",
  "compiler": {
    "name": "solc",
    "version": "0.8.7+commit.e28d00a7.Emscripten.clang"
  },
  "schemaVersion": "3.4.1",
  "updatedAt": "2021-09-01T01:56:35.619Z",
  "networkType": "ethereum",
  "devdoc": {
    "details": "ERC721, Non-Fungible Token, implementation.  There are 7056 available NFTs.  Includes functionality to mint new tiles as well as to update the color of the tile.",
    "events": {
      "ColorBytesUpdated(uint256,address,bytes)": {
        "details": "Emitted when `owner` changes the `tokenId` color to `updatedColor`."
      }
    },
    "kind": "dev",
    "methods": {
      "approve(address,uint256)": {
        "details": "See {IERC721-approve}."
      },
      "balanceOf(address)": {
        "details": "See {IERC721-balanceOf}."
      },
      "getApproved(uint256)": {
        "details": "See {IERC721-getApproved}."
      },
      "getOwner(uint256)": {
        "details": "Returns the owner of the tile, or the empty address if no owner exists or out of range."
      },
      "isApprovedForAll(address,address)": {
        "details": "See {IERC721-isApprovedForAll}."
      },
      "name()": {
        "details": "See {IERC721Metadata-name}."
      },
      "owner()": {
        "details": "Returns the address of the current owner."
      },
      "ownerOf(uint256)": {
        "details": "Reimplements ownerOf to default the owner to the contract creator."
      },
      "renounceOwnership()": {
        "details": "Leaves the contract without owner. It will not be possible to call `onlyOwner` functions anymore. Can only be called by the current owner. NOTE: Renouncing ownership will leave the contract without an owner, thereby removing any functionality that is only available to the owner."
      },
      "safeTransferFrom(address,address,uint256)": {
        "details": "See {IERC721-safeTransferFrom}."
      },
      "safeTransferFrom(address,address,uint256,bytes)": {
        "details": "See {IERC721-safeTransferFrom}."
      },
      "setApprovalForAll(address,bool)": {
        "details": "See {IERC721-setApprovalForAll}."
      },
      "setColorBytes(uint256,bytes)": {
        "details": "Sets the `color` for `tokenId` Setting the color is actually just emitting an event. Does a sanity check to ensure people aren't uploading full size images or other large data. Full validation of the color byte array is handled off chain to ensure it is a png, jpg, or gif. Emits a {ColorBytesUpdated} event"
      },
      "setColorBytesBulk(uint256[],bytes[])": {
        "details": "Sets the color for all `tokenIds`.  `colors` will be updated for `tokenIds` with the same index. Setting the color is actually just emitting an event. For example tokenIds=[10,50] and colors=[x,y] would emit events  ColorBytesUpdated(10, <msg.sender>, x) and ColorBytesUpdated(50, <msg.sender>, y) Requires tokenIds and colors to be the same length."
      },
      "supportsInterface(bytes4)": {
        "details": "See {IERC165-supportsInterface}."
      },
      "symbol()": {
        "details": "See {IERC721Metadata-symbol}."
      },
      "tokenURI(uint256)": {
        "details": "See {IERC721Metadata-tokenURI}."
      },
      "transferFrom(address,address,uint256)": {
        "details": "See {IERC721-transferFrom}."
      },
      "transferOwnership(address)": {
        "details": "Transfers ownership of the contract to a new account (`newOwner`). Can only be called by the current owner."
      }
    },
    "version": 1
  },
  "userdoc": {
    "kind": "user",
    "methods": {},
    "version": 1
  }
}